:10000000B2C00000DAC00000D8C000000C94E71BAA
:10001000D4C00000D2C00000D0C00000CEC000009C
:10002000CCC00000CAC00000C8C00000C6C00000AC
:10003000C4C00000C2C000000C94560ABEC000003C
:10004000BCC00000BAC000000C945008B6C000004C
:10005000B4C00000B2C00000B0C00000AEC00000DC
:10006000ACC00000AAC00000A8C00000A6C00000EC
:10007000A4C00000A2C00000A0C000009EC00000FC
:100080009CC000009AC0000098C00000084AD73BFE
:100090003BCE016E84BCBFFDC12F3D6C74319ABD57
:1000A00056833DDA3D00C77F11BED9E4BB4C3E917B
:1000B0006BAAAABE000000803F072C7AA5BA6CC5C7
:1000C00090DA3B9365FC8BBC53F810FD3C56928351
:1000D0004DBD879D3AB63DCBC9BF5BBE73DA0FC934
:1000E0003F08000000BE922449123EABAAAA2ABED5
:1000F000CDCCCC4C3E00000080BEABAAAAAA3E00EC
:10010000000000BF000000803F0000000000084128
:1001100078D3BB4387D1133D190E3CC3BD4282AD9A
:100120002B3E68EC8276BED98FE1A93E4C80EFFF72
:10013000BE01C4FF7F3F000000000007634236B7E6
:100140009BD8A71A39685618AEBAAB558C1D3CB768
:10015000CC5763BD6DEDFD753EF6177231BF0000E3
:1001600000803F006E2711241FBECFEFD0E1DEBF1D
:10017000CDBF11E0A0E0B1E0EAE0FEE500E00BBF9A
:1001800002C007900D92AE3EB107D9F722E0AEEE65
:10019000B1E001C01D92AB35B207E1F710E0C3EB4F
:1001A000D0E004C02197FE010E94002CC23BD10781
:1001B000C9F70E94151C0C94032F22CF9398089521
:1001C000939A08951092900083E389B986E0809312
:1001D000950088E98AB90895AC0190E0FA01E90F29
:1001E000F11D2081222329F02CB95D9BFECF9F5F5A
:1001F000F5CF0895D49A8AE18A95F1F700C0D39A91
:100200008AE18A95F1F700C0D4988AE18A95F1F7DE
:1002100000C0D3988AE18A95F1F700C010925A0283
:10022000CB9905C080915A028F5F80935A02CC9976
:1002300005C080915A028F5F80935A028AE18A95A5
:10024000F1F700C08AE18A95F1F700C08AE18A954A
:10025000F1F700C08AE18A95F1F700C00895D398BC
:10026000D498DB98DC98C6DFC5CFD39A8AE18A950B
:10027000F1F700C0D49A8AE18A95F1F700C0089599
:1002800098E087FD02C0D39A01C0D3982AE12A954D
:10029000F1F700C0D4982AE12A95F1F700C0D49A6A
:1002A000880F915071F7D3988AE18A95F1F700C0D1
:1002B000D4982AE12A95F1F700C089B3D49A83FB38
:1002C000882780F90895282FD39898E080E0880F38
:1002D000D4983AE13A95F1F700C0CB998160D49A6D
:1002E0003AE13A95F1F700C0915089F7211102C027
:1002F000D39A01C0D3989AE19A95F1F700C0D498A7
:100300003AE13A95F1F700C0D49A9AE19A95F1F75B
:1003100000C0D3980895D79A8AE18A95F1F700C072
:10032000D69A8AE18A95F1F700C0D7988AE18A9532
:10033000F1F700C0D6988AE18A95F1F700C01092D3
:100340005902CE9905C0809159028F5F809359025E
:10035000CF9905C0809159028F5F809359028AE13D
:100360008A95F1F700C08AE18A95F1F700C08AE129
:100370008A95F1F700C08AE18A95F1F700C00895E7
:10038000D698D798DE98DF98C6DFC5CFD69A8AE18F
:100390008A95F1F700C0D79A8AE18A95F1F700C0F3
:1003A000089598E087FD02C0D69A01C0D6982AE148
:1003B0002A95F1F700C0D7982AE12A95F1F700C0F5
:1003C000D79A880F915071F7D6988AE18A95F1F7FC
:1003D00000C0D7982AE12A95F1F700C089B3D79ACF
:1003E00086FB882780F90895282FD69898E080E02A
:1003F000880FD7983AE13A95F1F700C0CE9981601D
:10040000D79A3AE13A95F1F700C0915089F7211156
:1004100002C0D69A01C0D6989AE19A95F1F700C029
:10042000D7983AE13A95F1F700C0D79A9AE19A95B0
:10043000F1F700C0D6980895CF93DF93C82F15DF4A
:100440008CEE1EDF8C2F1CDFD5DE0FDF8DEE18DF6C
:1004500080E039DFD82F81E036DFC82FCBDE8C2F4C
:1004600090E0982F88278D0F911DDF91CF910895EF
:100470001F93CF93DF93C82FF8DE8CEE01DF8C2F14
:10048000FFDEB8DEF2DE8DEEFBDE80E01CDF182F33
:1004900080E019DFC82F81E016DFD82FABDE812F77
:1004A00090E0A0E0B0E0BC01552744278C2F90E0FD
:1004B000A0E0B0E0BA2FA92F982F8827840F951FAE
:1004C000A61FB71F8D0F911DA11DB11DBC01CD0130
:1004D00044E096958795779567954A95D1F7DF9192
:1004E000CF911F910895CF93DF93D82FC62FBDDEF4
:1004F0008CEEC6DE8D2FC4DE8C2FC2DEDF91CF9155
:1005000079CE8F929F92AF92BF92CF92DF92EF926D
:10051000FF920F931F938AEFABDF00915702109168
:10052000580220E030E06B017C0144E0F594E79450
:10053000D794C7944A95D1F7C01AD10AE20AF30AB0
:10054000DC01CB0153E0B595A795979587955A9512
:10055000D1F7000F111F221F331F4C015D01801ABC
:10056000910AA20AB30AA5019401A0915502B09183
:1005700056020E94EE2B4B015C017BE0B594A794E0
:10058000979487947A95D1F7A7019601C701B60190
:100590000E94972B9B01AC01ECE055954795379550
:1005A0002795EA95D1F7A0915302B09154020E9489
:1005B000EE2BDC01CB01FEE0B595A79597958795CD
:1005C000FA95D1F7A5019401280F391F4A1F5B1F27
:1005D00020933D0230933E0240933F0250934002ED
:1005E000A5E0B0E00E94E42BDC01CB0180589F4FD6
:1005F000AF4FBF4F692F7A2F8B2F992787FD9A9581
:100600001F910F91FF90EF90DF90CF90BF90AF9030
:100610009F908F9008954F925F926F927F928F92EA
:100620009F92AF92BF92CF92DF92EF92FF92CF93C1
:10063000DF9300D000D0CDB7DEB787EF19DF698335
:100640007A838B839C8380913D0290913E02A0919E
:100650003F02B0914002B595A795979587952C01DB
:100660003D012AEF521A61087108C301B20142E04C
:1006700095958795779567954A95D1F79B01AC013C
:100680000E94972B6B017C01A0914D02B0914E020C
:100690009B01AC016DE055954795379527956A9577
:1006A000D1F70E94EE2B4B015C0173E0B594A79447
:1006B000979487947A95D1F7A0914F02B091500208
:1006C000A30192010E94EE2BDC01CB01B595A79509
:1006D00097958795880D991DAA1DBB1DF2E1B595CB
:1006E000A79597958795FA95D1F79C01AD0130585C
:1006F0004F4F5F4FA0915102B09152020E94E42BE4
:100700004B015C01AFE0B594A79497948794AA95A8
:10071000D1F781149104A104B10409F4C2C0A70166
:1007200096016BE055954795379527956A95D1F7D2
:10073000A0914702B09148020E94EE2B6B017C0110
:10074000A0914902B0914A02A30192010E94EE2BAE
:10075000DC01CB01880F991FAA1FBB1FC80ED91E31
:10076000EA1EFB1EE2E0F594E794D794C794EA955D
:10077000D1F720914B0230914C02C901330FAA0BE3
:10078000BB0BDC01992788278C0D9D1DAE1DBF1D5D
:100790002CE0B595A795979587952A95D1F729814E
:1007A0003A814B815C81280F391F4A1F5B1FABECDC
:1007B000B3EF0E94F02B805B9C4397FD0BC0660F4C
:1007C000771F881F991FA50194010E94A62B69011C
:1007D0007A010AC0A50194010E94A62B69017A0141
:1007E000CC0CDD1CEE1CFF1CC701B60123E0969566
:1007F0008795779567952A95D1F79B01AC010E9463
:10080000972B9B01AC016DE0569547953795279541
:100810006A95D1F7A0914102B09142020E94EE2B5D
:100820004B015C017CE0B594A794979487947A95EA
:10083000D1F7A7019601E2E05695479537952795A0
:10084000EA95D1F7A0914302B09144020E94EE2BA9
:10085000DC01CB01FDE0B595A79597958795FA95B5
:10086000D1F7B501A401480F591F6A1F7B1F809162
:10087000450290914602092E000CAA0BBB0B840F77
:10088000951FA61FB71F24E0B595A7959795879547
:100890002A95D1F7BC01CD016C0D7D1D8E1D9F1DCC
:1008A00003C060E070E0CB010F900F900F900F90AD
:1008B000DF91CF91FF90EF90DF90CF90BF90AF90FE
:1008C0009F908F907F906F905F904F90089588E8F1
:1008D000B3DD90935802809357028AE8ADDD909380
:1008E0005602809355028CE8A7DD909354028093C2
:1008F00053028EE8A1DD909352028093510280E969
:100900009BDD9093500280934F0282E995DD909396
:100910004E0280934D0284E98FDD90934C028093C8
:100920004B0286E989DD90934A028093490288E967
:1009300083DD90934802809347028AE97DDD90939E
:100940004602809345028CE977DD909344028093C0
:1009500043028EE971DD909342028093410260E48C
:1009600085EFC1DD67EB84EFBECDCF93DF93D82F4A
:10097000C62F7BDC86EA84DC8D2F82DC8C2F80DC2A
:10098000DF91CF9137CC68E28DE2EFDF63E081E366
:10099000ECDF60E088E3E9CF68DC86EA71DC82E3C3
:1009A0006FDC28DC62DC87EA6BDC80E08CDC809327
:1009B0003B0280E088DC80933C0280E084DC809312
:1009C000390280E080DC80933A0280E07CDC809316
:1009D000370281E078DC809338020CDC60913C02C5
:1009E00070E0762F662780913B02680F711D072EFD
:1009F000000C880B990B0E94B4282AE939E949EFC9
:100A000051E40E94F42920E030E048E552E40E94DD
:100A100088270E9481286093330270933402809368
:100A200035029093360260913A0270E0762F662785
:100A300080913902680F711D072E000C880B990BED
:100A40000E94B4282AE939E949EF51E40E94F429C7
:100A500020E030E040E652E40E9488270E9481288E
:100A600060932F0270933002809331029093320290
:100A70006091380270E0762F662780913702680F08
:100A8000711D072E000C880B990B0E94B4282AE9CF
:100A900039E949EF51E40E94F42920E030E048EBC5
:100AA00051E40E9488270E94812860932B02709352
:100AB0002C0280932D0290932E020895D6DB86EAB5
:100AC000DFDB80E0DDDB96DBD0DB87EAD9DB81E0B2
:100AD000FADB80932A028ECB9FB7F894BF9AE9EC99
:100AE000F3E03197F1F700C00000BF98FDEAFA95F6
:100AF000F1F7000086B39FBFE7E4F3E03197F1F729
:100B000000C000008095881F8827881F08959FB720
:100B1000F894BF9A25E02A95F1F700008111BF985B
:100B20008DEA8A95F1F70000BF989FBF0895EF9274
:100B3000FF920F931F93CF93DF93C0E0D0E0EE249A
:100B4000E394F12C082F10E0C7010C2E02C0880F8F
:100B5000991F0A94E2F798012823392382179307F3
:100B600011F481E001C080E0D2DF2196C830D105C8
:100B700059F7DF91CF911F910F91FF90EF9008955A
:100B80009FB7F894BF9A25E02A95F1F70000BF9827
:100B900082E28A95F1F700C086B328E72A95F1F73B
:100BA0009FBF881F8827881F08951F93CF93DF93C7
:100BB000C0E0D0E010E0E4DF0C2E01C0880F0A9402
:100BC000EAF7182B2196C830D105A9F7812FDF91BC
:100BD000CF911F9108958CECAADF8EE4A8DF8FE7F8
:100BE000A6DF8FEFA4DF8FE3A2DF88E4A0CFCF934F
:100BF00073DF8130D9F48CEC9ADF84E498DF2FEF37
:100C000041EE54E0215040405040E1F700C0000068
:100C100063DF8CEC8CDF8EEB8ADFC7DFC82FC5DF8C
:100C20002C2F30E0A901582BCA0102C080E090E0CF
:100C3000CF91089587B3876087BB80E58DB908950C
:100C40008FB9779BFECF8FB10895969A08959698A5
:100C5000089581B3886481BB8898B2DAF8DFEACF5F
:100C6000EF92FF920F931F93CF93DF93D82F7B01C7
:100C7000C42FA4DA8D2FE4DFD82F8701CC2331F0E5
:100C8000F80181918F01DCDFC150F8CF99DA8D2F07
:100C9000DF91CF911F910F91FF90EF900895CF9327
:100CA000C82F8CDA8C2F8F71CBDF8FEFC9DFC82F65
:100CB00087DA8C2FCF910895CF93DF93C82FD62F4B
:100CC0007DDA8C2F8F718062BBDFC82F8D2FB8DF4C
:100CD00077DA8C2FDF91CF9108958F718062C0CF2A
:100CE0001F93CF93DF93CDB7DEB72A970FB6F89453
:100CF000DEBF0FBECDBF85E0E2E0F1E0DE0116967B
:100D000001900D928A95E1F785E0E7E0F1E0DE01E0
:100D1000119601900D928A95E1F799DF15E66DE045
:100D200080E0CADF80E0BBDF8D3051F0115009F464
:100D300040C08FEC97E00197F1F700C00000EFCFC3
:100D400063E081E0B9DF63E082E0B6DF63E083E087
:100D5000B3DF62E084E0B0DF6CE385E0ADDF66E244
:100D600086E0AADF45E0BE016F5F7F4F8AE0B5DF16
:100D700045E0BE016F5F7F4F80E1AFDF45E0BE0120
:100D80006A5F7F4F8BE0A9DF60E281E195DF60E27F
:100D900082E192DF60E08CE18FDF61E08DE18CDF4A
:100DA0006FE180E089DF80E07ADF11E08F3109F0C8
:100DB00010E0812F2A960FB6F894DEBF0FBECDBF8C
:100DC000DF91CF911F9108951F93CF93DF93EC0193
:100DD000162F3DDF80E063DF81FD02C080E010C0A0
:100DE000682F6E7F80E068DF80FDF8CF412FBE0165
:100DF00080EB36DF2ADF88E28A95F1F728DF8FE281
:100E0000DF91CF911F910895CF93DF93C82FBEDA62
:100E100080E8C7DA8C2FC5DA7EDA2FEF80E792E020
:100E2000215080409040E1F700C00000AFDA81E837
:100E3000B8DA80E0D9DAC82F81E0D6DAD82F6BDAB9
:100E40008C2F90E0982F88278D0F911DDF91CF91E7
:100E5000089583EED9DFBC01990F880B990B0E948E
:100E6000B42820E030EC4CE253E40E94F42920E066
:100E700030E040E857E30E94F42926E636E64BE3EB
:100E800052E40E9488270E948128CB01089585EEB4
:100E9000BBDFBC0180E090E00E94B22820E030E09F
:100EA0004AEF52E40E94F42920E030E040E857E3A2
:100EB0000E94F4290E948128CB0106970895CF93C0
:100EC000DF93C82F63DA80ED6CDA8C2F6ADA23DACD
:100ED0005DDA81ED66DA80E087DAC82F81E084DAB6
:100EE000D82F19DA8C2F90E0982F88278D0F911D1D
:100EF000DF91CF910895CF93DF93D82FC62F46DA95
:100F000080ED4FDA8D2F4DDA8C2F4BDADF91CF91B8
:100F100002CACF933BDA80ED44DA85E742DAFBD9A7
:100F200035DA81ED3EDA81E05FDAC82FF4D98C2F13
:100F3000CF91089585E7EDDF68E08CE1DCCFBC9AC6
:100F40008EE683BF08953E9A2FEF89E698E12150FF
:100F500080409040E1F700C00000379A86B187607A
:100F600086B9089597B18770982B97B9369A349BB4
:100F7000FECF84B195B108954F925F926F927F92A8
:100F80008F929F92AF92BF92CF92DF92EF92FF9299
:100F90000F931F93CF93DF93FC012081222309F449
:100FA00067C06C015C0100E010E0D0E0C0E0C5016A
:100FB0008C199D09F501F1905F01FEE2FF16E9F041
:100FC00020E030E040E251E4B8018D2F9C2F0E94D8
:100FD000F4292B013C016F2D70E060537109072E3D
:100FE000000C880B990B0E94B428A30192010E9467
:100FF00089278B01D82FC92FDACF7C012FEFE21A76
:10100000F20AEC0CFD1CCC24CA94DC2CF701719084
:101010007F01772089F1B6010D2C000C880B990B0C
:101020000E94B4289B01AC0160E070E080E291E492
:101030000E94572A4B015C01672D70E060537109D3
:10104000072E000C880B990B0E94B428A50194016F
:101050000E94F4299B01AC01B8018D2F9C2F0E94A6
:1010600089278B01D82FC92FF1E0CF1AD108CECF15
:1010700000E010E0D0E0C0E0B8018D2F9C2FDF91A0
:10108000CF911F910F91FF90EF90DF90CF90BF9085
:10109000AF909F908F907F906F905F904F9008954A
:1010A0001F920F920FB60F9211240BB60F922F932F
:1010B0003F934F935F936F937F938F939F93AF93E0
:1010C000BF93CF93DF93EF93FF932CB12093F6015F
:1010D00080910001909101012C3209F00AC1209108
:1010E0000B0230910C022F5F3F4F30930C02209384
:1010F0000B02892B41F08091000190910101029730
:1011000009F015C119C081E090E09093010180932E
:10111000000167EF71E08DE092E00E94212C1092B7
:10112000080210920702E7EFF1E087E092E01192E7
:101130008E179F07E1F7DFCF84E090E090930101E5
:10114000809300018091F701882309F498C06CE234
:1011500071E08DE092E00E94182C892B89F5809136
:10116000090290910A028130910561F487EF91E0C4
:1011700003DF60931C0270931D0280931E02909304
:101180001F027DC08530910561F487EF91E0F4DEA8
:1011900060931402709315028093160290931702C5
:1011A0006EC0079709F06BC087EF91E0E5DE6093B2
:1011B00018027093190280931A0290931B025FC069
:1011C00062E371E08DE092E00E94182C892B09F017
:1011D00056C08091090290910A028130910561F414
:1011E00087EF91E0C9DE6093260270932702809317
:1011F00028029093290243C08230910579F467EF69
:1012000071E088E391E00E94182C892B21F481E0A1
:101210008093250234C01092250231C0833091059D
:1012200061F487EF91E0A8DE6093210270932202BF
:10123000809323029093240222C08430910579F494
:1012400067EF71E08AE391E00E94182C892B21F46A
:1012500081E08093200213C01092200210C00697F4
:1012600071F467EF71E08CE391E00E94182C892BF8
:1012700021F481E08093130202C0109213021092B5
:10128000080210920702E7EFF1E0119282E0E730E6
:10129000F807D9F76CE271E08DE092E00E94182C1B
:1012A000C0910902D0910A02892B81F4C130D10585
:1012B00019F485E090E005C0259709F062C087E049
:1012C00090E090930A02809309025BC062E371E0B0
:1012D0008DE092E00E94182C892B09F052C0C63094
:1012E000D10508F04EC02196D0930A02C09309029E
:1012F00048C08D7F892B89F4809107029091080264
:10130000FC01E950FE4F20830196FC01E950FE4F9D
:1013100010829093080280930702243241F41092C5
:1013200001011092000110920C0210920B028091A8
:101330000001909101010197F1F46CE271E08DE000
:1013400092E00E94182C892B69F481E090E0909340
:101350000A028093090284E090E090930101809357
:10136000000109C062E371E08DE092E00E94182C58
:10137000892B59F317C080910001909101010497C6
:1013800089F420910B0230910C0280910902909116
:101390000A022817390731F482E090E090930101A6
:1013A00080930001FF91EF91DF91CF91BF91AF91B9
:1013B0009F918F917F916F915F914F913F912F916D
:1013C0000F900BBE0F900FBE0F901F9018954F926D
:1013D0005F926F927F928F929F92AF92BF92CF92C5
:1013E000DF92EF92FF92CF93DF93EC01C8A8D9A8C8
:1013F000EAA8FBA8A70196016C857D858E859F854F
:101400000E9488274B015C0120E030E0A9010E9486
:101410001528882399F0288539854A855B8568A534
:1014200079A58AA59BA50E9488272B013C0120E075
:1014300030E0A9010E941528811105C01CA61DA637
:101440001EA61FA61DC0A3019201C501B4010E94E2
:1014500019289B01AC01C701B6010E9419286B0134
:101460007C0120E030E0A9010E94A42987FF04C08C
:10147000F7FAF094F7F8F094CCA6DDA6EEA6FFA656
:10148000DF91CF91FF90EF90DF90CF90BF90AF9022
:101490009F908F907F906F905F904F90089582E023
:1014A0008EBD1FBC87B7846087BF08951F920F92BF
:1014B0000FB60F9211240BB60F92CF92DF92EF92DC
:1014C000FF922F933F934F935F936F937F938F93ED
:1014D0009F93AF93BF93EF93FF932FE632E143E8DF
:1014E00052E46091EE017091EF018091F0019091D2
:1014F000F1010E9489276B017C0120E030E04AE77E
:1015000054E40E94A42987FF09C0C092EE01D09242
:10151000EF01E092F001F092F10126C020E030E00E
:101520004AE754E4C701B6010E9488276093EE01A0
:101530007093EF018093F0019093F10120E030E08F
:1015400040E85FE36091F2017091F3018091F40152
:101550009091F5010E9489276093F2017093F30145
:101560008093F4019093F501FF91EF91BF91AF91BA
:101570009F918F917F916F915F914F913F912F91AB
:10158000FF90EF90DF90CF900F900BBE0F900FBEAB
:101590000F901F90189520E030E04AE754E46091E6
:1015A000EE017091EF018091F0019091F1010E94A4
:1015B00019282091F2013091F3014091F4015091EA
:1015C000F5010C9489278FB9779BFECF08958FEF93
:1015D0008FB9779BFECF8FB108951E9808951E9AFC
:1015E0000895169AFCCFCF93F8DF85E0ECDFEFDFAC
:1015F000C82FF5DF8FEC97E00197F1F700C00000EE
:101600008C2F8170CF910895EEDF8111FDCFE5DF42
:1016100086E0D9DFE4DF8FEC97E00197F1F700C0B7
:10162000000008950F931F93CF93DF93D62F172FAA
:10163000082FC42FE9DF8FEC97E00197F1F700C086
:101640000000CBDF82E0BFDF802FBDDF812FBBDF5B
:101650008D2FB9DF8C2FB7DFC2DF8FEC97E00197BA
:10166000F1F700C00000DF91CF911F910F91089515
:101670002F923F924F925F926F927F928F929F92A2
:10168000AF92BF92CF92DF92EF92FF920F931F9390
:10169000CF93DF93CDB7DEB76B970FB6F894DEBF6D
:1016A0000FBECDBF4987E52F2A873B87EC86FD8695
:1016B000CE86DF863A2CB88A898A292C28A939A9AE
:1016C0004AA95BA929833A834B835C832CA93DA952
:1016D0004EA95FA92D833E834F835887C8ACD9ACF0
:1016E000EAACFBAC4CAC5DAC6EAC7FAC21963FADD4
:1016F00021973A8B22964FAD22974B8B23965FAD65
:1017000023975C8B2496AFAD2497AD8B2596BFAD08
:101710002597BE8B26962FAD26972F8B27963FAD0C
:101720002797388F28964FAD2897498F29965FAD18
:1017300029975A8F2A96AFAD2A97AB8FA8E2B0E0CF
:101740009B01AC010E94E42B4B015C014E2F6ADF30
:10175000C501B4016F5F7F4F8F4F9F4F498562DF97
:10176000C501B4016E5F7F4F8F4F9F4F4B855ADF8E
:10177000C501B4016D5F7F4F8F4F9F4F4A8552DF88
:10178000C501B4016C5F7F4F8F4F9F4F412F4ADFE0
:10179000C501B4016B5F7F4F8F4F9F4F402F42DFDA
:1017A000C501B4016A5F7F4F8F4F9F4F4D853ADF70
:1017B000C501B401695F7F4F8F4F9F4F4C8532DF6A
:1017C000C501B401685F7F4F8F4F9F4F4F852ADF60
:1017D000C501B401675F7F4F8F4F9F4F4E8522DF5A
:1017E000C501B401665F7F4F8F4F9F4F48891ADF55
:1017F000C501B401655F7F4F8F4F9F4F432D12DFAF
:10180000C501B401645F7F4F8F4F9F4F422D0ADFA8
:10181000C501B401635F7F4F8F4F9F4F498902DF3E
:1018200089819A81AB81BC810B2F11272227332715
:10183000C501B401625F7F4F8F4F9F4F402FF2DE93
:1018400089819A81AB81BC818D0122273327C50113
:10185000B401615F7F4F8F4F9F4F402FE3DE89813F
:101860009A81AB81BC81092F1A2F2B2F3327C501F9
:10187000B401605F7F4F8F4F9F4F402FD3DEC50174
:10188000B4016F5E7F4F8F4F9F4F4981CBDE8D81BB
:101890009E81AF81B8850B2F112722273327C501E1
:1018A000B4016E5E7F4F8F4F9F4F402FBBDE8D8107
:1018B0009E81AF81B8858D0122273327C501B401F0
:1018C0006D5E7F4F8F4F9F4F402FACDE8D819E818D
:1018D000AF81B885092F1A2F2B2F3327C501B401EB
:1018E0006C5E7F4F8F4F9F4F402F9CDEC501B40130
:1018F0006B5E7F4F8F4F9F4F4D8194DE0F2D1127D1
:1019000022273327C501B4016A5E7F4F8F4F9F4F57
:10191000402F88DE870122273327C501B401695E85
:101920007F4F8F4F9F4F402F7DDE33272F2D1E2D52
:101930000D2DC501B401685E7F4F8F4F9F4F402F23
:1019400071DEC501B401675E7F4F8F4F9F4F4C2DF5
:1019500069DE072D112722273327C501B401665EF2
:101960007F4F8F4F9F4F402F5DDE8301222733270C
:10197000C501B401655E7F4F8F4F9F4F402F52DEF0
:101980003327272D162D052DC501B401645E7F4F29
:101990008F4F9F4F402F46DEC501B401635E7F4FDE
:1019A0008F4F9F4F442D3EDEC501B401625E7F4FD5
:1019B0008F4F9F4F4B8936DEC501B401615E7F4F6B
:1019C0008F4F9F4F4A892EDEC501B401605E7F4F65
:1019D0008F4F9F4F4D8926DEC501B4016F5D7F4F4C
:1019E0008F4F9F4F4C891EDEC501B4016E5D7F4F46
:1019F0008F4F9F4F4F8916DEC501B4016D5D7F4F3C
:101A00008F4F9F4F4E890EDEC501B4016C5D7F4F35
:101A10008F4F9F4F498D06DEC501B4016B5D7F4F2F
:101A20008F4F9F4F488DFEDDC501B4016A5D7F4F2A
:101A30008F4F9F4F4B8DF6DDC501B401695D7F4F20
:101A40008F4F9F4F4A8D6B960FB6F894DEBF0FBE37
:101A5000CDBFDF91CF911F910F91FF90EF90DF905D
:101A6000CF90BF90AF909F908F907F906F905F903E
:101A70004F903F902F90D6CDE199FECF9FBB8EBB6C
:101A80006DBBE29AE19A08951F93CF93DF93EC0127
:101A9000172FF2DF612FCE010196DF91CF911F91B9
:101AA000EBCFCF92DF92EF92FF92CF93DF93EC01D7
:101AB0006A017B01672F772788279927CE01DCDF12
:101AC000B70188279927CE010196D6DF99278F2D58
:101AD0007E2D6D2DCE010296CFDF6C2DCE010396AB
:101AE000DF91CF91FF90EF90DF90CF90C5CF4F92D5
:101AF0005F926F927F928F929F92AF92BF92CF929E
:101B0000DF92EF92FF92FC014080518062807380EF
:101B100020E030E044EB52E4C301B2010E94882788
:101B200020E030E040E151E40E94F4299B01AC0147
:101B300064E578EF8DE290E40E94572A4B015C0146
:101B4000A301920160E070E080E691E40E948827A2
:101B500020E030E040E151E40E94F4299B01AC0117
:101B600064E578EF8DE290E40E94572A6B017C01D6
:101B700020E030E04CE052E4C301B2010E9488272B
:101B80000E9481289B0177FF04C022273327261B50
:101B9000370B66277727621B730B072E000C880B09
:101BA000990B0E94B42826E636E646EE50E40E94E1
:101BB00019289B01AC0164E578EF8DE290E40E9466
:101BC000572A2B013C0120E030E040E85FE3C501EB
:101BD000B4010E948927A70196010E94892726E661
:101BE00036E646E450E40E94F4296B017C012DECBA
:101BF0003CEC4CE45FE3C301B2010E94F429A7016D
:101C00009601FF90EF90DF90CF90BF90AF909F90A4
:101C10008F907F906F905F904F900C94572A4F92C7
:101C20005F926F927F928F929F92AF92BF92CF926C
:101C3000DF92EF92FF92CF93DF93EC0120E030E050
:101C400048E652E4688179818A819B810E94152847
:101C5000C884D984EA84FB84A70196011816BCF1D4
:101C600063E373E383EE90E40E9488272DEC3CEC61
:101C70004CE050E40E94F4299B01AC0164E578EF4C
:101C80008DE290E40E94572A2B013C0120E030E0D5
:101C900040E85DE3C701B6010E94F4290E94ED27E8
:101CA0004B015C0120E030E040E85FE3C301B2019A
:101CB0000E9489272AE939E949E350E40E94F4297E
:101CC0006B017C012FE334E746E05FE336C06FE849
:101CD00072EC85EF9DE30E94882720E030E04EE023
:101CE00053E40E94F4299B01AC0164E578EF8DE296
:101CF00090E40E94572A2B013C0126E636E646E294
:101D000050E4C701B6010E9419280E94ED274B013B
:101D10005C0120E030E040E85FE3C301B2010E94D3
:101D2000892726E636E646E450E40E94F4296B0152
:101D30007C0121E23BEF4AEF5EE3C501B4010E9462
:101D4000F429A7019601DF91CF91FF90EF90DF90EA
:101D5000CF90BF90AF909F908F907F906F905F904B
:101D60004F900C94572A4F925F926F927F928F926E
:101D70009F92AF92BF92CF92DF92EF92FF92FC01BF
:101D8000C480D580E680F78020E030E048EC52E463
:101D9000C701B6010E94F4299B01AC0160E070E02C
:101DA0008CE492E40E94882726E636E646E650E474
:101DB0000E94F4299B01AC0164E578EF8DE290E488
:101DC0000E94572A2B013C0126E636E646EA5FE3ED
:101DD000C701B6010E94572A2DEC3CEC4CE250E4BE
:101DE0000E94F4290E94ED274B015C0120E030E0C5
:101DF00040E85FE3C301B2010E94892726E636E688
:101E000046E250E40E94F4296B017C0125EE37E59F
:101E10004BE05FE3C501B4010E94F429A7019601DC
:101E2000FF90EF90DF90CF90BF90AF909F908F90FA
:101E30007F906F905F904F900C94572A2F923F9213
:101E40004F925F926F927F928F929F92AF92BF92CA
:101E5000CF92DF92EF92FF92CF93DF93CDB7DEB7B1
:101E600028970FB6F894DEBF0FBECDBF3C01D7DE7A
:101E70004B015C01C30177DF6B017C0126EF38E287
:101E80004CED5EE3C501B4010E94F4299B01AC0155
:101E900060E070E080E89FE30E9488271B012C012E
:101EA00027ED33EA40EF5EE3C701B6010E94F42953
:101EB0009B01AC01C201B1010E94882769837A832A
:101EC0008B839C83C30113DE2B013C0129813A8162
:101ED0004B815C810E94572A69837A838B839C8320
:101EE00028EB3EE145E05EE3C301B2010E94F42924
:101EF0009B01AC0160E070E080E89FE30E948827CE
:101F00006D837E838F8398872AE037ED43EA5DE314
:101F1000C701B6010E94F4299B01AC016D817E814D
:101F20008F8198850E9488279B01AC01C501B4016F
:101F30000E94572A6D837E838F83988728E431EE31
:101F40004AEF5EE3C301B2010E94F4299B01AC0198
:101F500060E070E080E89FE30E9488272B013C014D
:101F60002EEA37E441EE5EE3C501B4010E94F42994
:101F70009B01AC01C301B2010E9488279B01AC0107
:101F8000C701B6010E94572A6B017C0129813A8161
:101F90004B815C816D817E818F8198850E94F429BF
:101FA000A70196010E94F42928960FB6F894DEBF87
:101FB0000FBECDBFDF91CF91FF90EF90DF90CF901C
:101FC000BF90AF909F908F907F906F905F904F9059
:101FD0003F902F900895CF92DF92EF92FF92CF9390
:101FE000DF93EC01C8A4D9A4EAA4FBA420E030E06C
:101FF000A901C701B6010E94A42918163CF42C813E
:102000003D814E815F81C701B60107C0C701B6019E
:1020100090582CA13DA14EA15FA10E941928DF91EB
:10202000CF91FF90EF90DF90CF9008958F929F9285
:10203000AF92BF92CF92DF92EF92FF92CF93DF9356
:10204000EC01FCDE6B017C01688979898A899B89B6
:102050002EEA37E441E25FE30E94572A0E94ED270F
:102060004B015C012AE939E949E15EE3C701B601A8
:102070000E94F4299B01AC0160E070E080E89FE3DE
:102080000E9488276B017C0121EB37E840E25FE387
:10209000C501B4010E94F429A7019601DF91CF91F7
:1020A000FF90EF90DF90CF90BF90AF909F908F9078
:1020B0000C94572ACF92DF92EF92FF92CF93DF9347
:1020C000EC01C88CD98CEA8CFB8C20E030E0A901B3
:1020D000C701B6010E94A42918162CF4A701960185
:1020E000C701B60105C0C701B60190589B01AC01FC
:1020F0000E9489276B017C0128A139A14AA15BA11B
:102100006C817D818E819F810E9489279B01AC011A
:10211000C701B6010E941928DF91CF91FF90EF907F
:10212000DF90CF9008954F925F926F927F928F923F
:102130009F92AF92BF92CF92DF92EF92FF92CF9396
:10214000DF93CDB7DEB72E970FB6F894DEBF0FBE84
:10215000CDBF9E878D876ADF69837A838B839C835B
:102160002DEC3CEC4CEC5EE30E94F4296D837E8305
:102170008F839887AD85BE851C96CD90DD90ED90C0
:10218000FC901F9720E030E048E352E4C701B6011D
:102190000E94152818164CF02FE23DED44E25EE354
:1021A000C701B6010E94F4290EC023E333E343E3E1
:1021B00050E4C701B6010E94F4292DEC3CEC42EF3B
:1021C00052E40E9488272B013C018D859E8536DED6
:1021D0004B015C0128EB3EE145E05FE3C701B6013E
:1021E0000E94F4290E94ED276B017C012BE734E16A
:1021F0004EE25EE3C501B4010E94F4299B01AC01EB
:1022000060E070E080E89FE30E94882769877A8712
:102210008B879C8723E839EF42E25FE3C701B60171
:102220000E94F42929853A854B855C850E94572AAE
:10223000A30192010E94F4292D813E814F8158858E
:102240000E94892729813A814B815C810E948927DC
:1022500069837A838B839C83ED85FE85408C518CCA
:10226000628C738C2AE939E949E95EEBC301B2015A
:102270000E9415281816CCF02FE832EC45E75DE3F4
:10228000AD85BE855C966D917D918D919C915F979A
:102290000E94F4290E94ED2723E839EF42E25FE330
:1022A0000E94F4296B017C011AC0ED85FE85648DC6
:1022B000758D868D978D0E94ED2723E839EF42E2D8
:1022C0005FE30E94F4296B017C012AE939E949E9BD
:1022D0005EEBC301B2010E941528181654F08D85DB
:1022E0009E85E8DE23E333E343E551E40E9488273B
:1022F00009C08D859E85DEDE23E333E343E351E4AD
:102300000E9489270E94ED2723E839EF42E25FE32C
:102310000E94F4299B01AC01C701B6010E94F42977
:1023200029813A814B815C810E9489276D837E835C
:102330008F839887AD85BE8598968D919D910D90E0
:10234000BC91A02D89839A83AB83BC832AE939E9A8
:1023500049E95EEBBC01CD010E941528181664F016
:102360008D859E8538DE2FE832EC45EF5DE30E94D7
:10237000F4296B017C011FC08D859E852CDE2B010D
:102380003C0126E636E646EE5FE30E9489272DEC07
:102390003CEC4CE050E40E94F4296B017C012AE9FA
:1023A00039E949E95EEB69817A818B819C810E94E0
:1023B0001528181684F18D859E850DDE20E030E00D
:1023C00040EC5FE30E94F4290E94ED272B013C01C1
:1023D0002DEC3CEC4CE45DE3C501B4010E94F42912
:1023E0009B01AC0160E070E080E89FE30E948827D9
:1023F00069837A838B839C8323E839EF42E25FE32E
:10240000C301B2010E94F42929813A814B815C8188
:102410000E94572A16C023E333E343E150E4C3018B
:10242000B2010E94892723E333E34BE351E40E9486
:10243000F4290E94ED2723E839EF42E25FE30E948E
:10244000F4299B01AC01C701B6010E94F4292D813A
:102450003E814F8158850E9489270E94ED2723E8FD
:1024600039EF42E25FE30E94F4299B01AC0160E096
:1024700070E080E89FE30E9488279B01AC01C501C2
:10248000B4010E94572A6B017C0120E030E040E853
:102490005FE30E941528882339F0ED85FE85C0AEE4
:1024A000D1AEE2AEF3AE08C0AD85BE85D8961D9222
:1024B0001D921D921C92DB972E960FB6F894DEBFEC
:1024C0000FBECDBFDF91CF91FF90EF90DF90CF9007
:1024D000BF90AF909F908F907F906F905F904F9044
:1024E00008954F925F926F927F928F929F92AF92D8
:1024F000BF92CF92DF92EF92FF92FC01C480D58011
:10250000E680F78020E030E048EC52E4C701B601F5
:102510000E94F4299B01AC0160E070E088E192E444
:102520000E9488272DEC3CEC4CE450E40E94F429F6
:102530009B01AC0164E578EF8DE290E40E94572A9C
:102540002B013C0126E636E646EA5FE3C701B60109
:102550000E94572A2DEC3CEC4CE250E40E94F429F6
:102560000E94ED274B015C0120E030E040E85FE392
:10257000C301B2010E94892726E636E646E250E40E
:102580000E94F4296B017C0125EE37E54BE05FE307
:10259000C501B4010E94F429A7019601FF90EF90B4
:1025A000DF90CF90BF90AF909F908F907F906F9073
:1025B0005F904F900C94572A2F923F924F925F92C8
:1025C0006F927F928F929F92AF92BF92CF92DF9243
:1025D000EF92FF92CF93DF93CDB7DEB728970FB678
:1025E000F894DEBF0FBECDBF3C0119DB4B015C018F
:1025F000C30177DF6B017C0126EF38E24CED5EE32F
:10260000C501B4010E94F4299B01AC0160E070E0B7
:1026100080E89FE30E9488271B012C0127ED33EA05
:1026200040EF5EE3C701B6010E94F4299B01AC01B3
:10263000C201B1010E94882769837A838B839C83BE
:10264000C30155DA2B013C0129813A814B815C8120
:102650000E94572A69837A838B839C8328EB3EE10F
:1026600045E05EE3C301B2010E94F4299B01AC0185
:1026700060E070E080E89FE30E9488276D837E839E
:102680008F8398872AE037ED43EA5DE3C701B601FF
:102690000E94F4299B01AC016D817E818F81988518
:1026A0000E9488279B01AC01C501B4010E94572AF2
:1026B0006D837E838F83988728E431EE4AEF5EE353
:1026C000C301B2010E94F4299B01AC0160E070E0FB
:1026D00080E89FE30E9488272B013C012EEA37E423
:1026E00041EE5EE3C501B4010E94F4299B01AC01F7
:1026F000C301B2010E9488279B01AC01C701B6014A
:102700000E94572A6B017C0129813A814B815C81AF
:102710006D817E818F8198850E94F429A7019601A1
:102720000E94F42928960FB6F894DEBF0FBECDBFE5
:10273000DF91CF91FF90EF90DF90CF90BF90AF905F
:102740009F908F907F906F905F904F903F902F90D1
:1027500008958F929F92AF92BF92CF92DF92EF92A5
:10276000FF92CF93DF93EC01C8A4D9A4EAA4FBA401
:102770002AE939E949E95EEBC701B6010E9415284B
:10278000181634F1CE0127DC4B015C0120E030E06B
:1027900040E551E40E94152818168CF4CE011BDC8C
:1027A0004B015C0120E030E040E551E40E94A429A7
:1027B000181674F42EEA37E441EA5FE304C022E518
:1027C00038EB4EE15FE3C501B4010E94F4291AC061
:1027D0002AE939E949E95EEBC701B6010E94A4295B
:1027E00018166CF4CE01F7DB26E636E646EE5FE31C
:1027F0000E9489272DEC3CEC4CE050E4E6CF60E0F1
:1028000070E0CB01DF91CF91FF90EF90DF90CF9000
:10281000BF90AF909F908F9008958F929F92AF92AC
:10282000BF92CF92DF92EF92FF92CF93DF93EC01B2
:10283000C8A4D9A4EAA4FBA42AE939E949E95EEBD2
:10284000C701B6010E94152818160CF466C0CE0107
:10285000C2DB4B015C0120E030E040E551E40E9426
:102860001528181614F5CE01B6DB4B015C0120E0EB
:1028700030E040E551E40E94A42918160CF04DC048
:10288000CE019ADE6B017C012AE939E949E350E483
:10289000C501B4010E94F4290E94ED274B015C019F
:1028A0002EEA37E441E65EE314C0CE0185DE6B011B
:1028B0007C012DEC3CEC4CE050E4C501B4010E94DD
:1028C000F4290E94ED274B015C012BE734E14EE235
:1028D0005EE3C701B6010E94F4299B01AC0160E0F0
:1028E00070E080E89FE30E9488276B017C0123E869
:1028F00039EF42E25FE3C501B4010E94F429A70168
:102900009601DF91CF91FF90EF90DF90CF90BF9035
:10291000AF909F908F900C94572A2AE939E949E9A2
:102920005EEBC701B6010E94A4291816BCF4CE01C3
:1029300052DB23E333E34BE351E40E94F42923E326
:1029400033E343E150E40E9489270E94ED2723E806
:1029500039EF42E25FE30E94F42903C060E070E0D7
:10296000CB01DF91CF91FF90EF90DF90CF90BF90A0
:10297000AF909F908F9008958F929F92AF92BF9249
:10298000CF92DF92EF92FF92CF93DF93EC0114DEB0
:102990006B017C0168A179A18AA19BA12AE939E98F
:1029A00049E550E40E94572A0E94ED274B015C0143
:1029B00029E23CE54FE85DE3C701B6010E94F42936
:1029C0009B01AC0160E070E080E89FE30E948827F3
:1029D0006B017C012AE736EE4EE15FE3C501B401ED
:1029E0000E94F429A7019601DF91CF91FF90EF900B
:1029F000DF90CF90BF90AF909F908F900C94572A0C
:102A00004F925F926F927F928F929F92AF92BF92FE
:102A1000CF92DF92EF92FF92CF93DF93CDB7DEB7E5
:102A20002E970FB6F894DEBF0FBECDBF9E878D8761
:102A3000C3DD6B017C01ED85FE856089718982892A
:102A4000938926E636E646EA5FE30E94572A0E940B
:102A5000ED272B013C012DEC3CEC4CE45DE3C70180
:102A6000B6010E94F4299B01AC0160E070E080E8AF
:102A70009FE30E9488274B015C0121EB37E840E28D
:102A80005FE3C301B2010E94F429A50194010E94F1
:102A9000572A2DEC3CEC4CEC5EE30E94F429698350
:102AA0007A838B839C83ED85FE854484558466847C
:102AB000778420E030E040E251E4C301B2010E949B
:102AC000152818164CF023E738E641E95DE3C30109
:102AD000B2010E94F4290EC023E333E343ED5FE328
:102AE000C301B2010E94F42927ED33EA4CE751E417
:102AF0000E9488274B015C012DEC3CEC4CE45FE329
:102B0000C301B2010E94F4290E94ED272B013C0170
:102B10002CEE31E548EB5DE3C701B6010E94F429D4
:102B20009B01AC0160E070E080E89FE30E94882791
:102B30006D837E838F83988723E839EF42E25FE3DA
:102B4000C301B2010E94F4292D813E814F81588535
:102B50000E94572A6D837E838F839887ED85FE853B
:102B600064897589868997890E94ED272B013C012C
:102B70002BE734E14EE25EE3C701B6010E94F4297F
:102B80009B01AC0160E070E080E89FE30E94882731
:102B900069877A878B879C872EE13AE244EE5EE371
:102BA000C301B2010E94F42929853A854B855C85D1
:102BB0000E94572A2B013C01A50194016D817E8161
:102BC0008F8198850E94F42929813A814B815C810B
:102BD0000E948927A30192010E94892769837A8331
:102BE0008B839C83ED85FE85408C518C628C738C2D
:102BF0002AE939E949E95EEBC301B2010E941528CF
:102C00001816BCF02BE734E14EE25EE3ED85FE855D
:102C1000648D758D868D978D0E94F4290E94ED2715
:102C200023E839EF42E25FE30E94F4294B015C01A3
:102C300020C026EF38E24CE150E4ED85FE85648D3E
:102C4000758D868D978D0E94F4290E94ED2723E8CB
:102C500039EF42E25FE30E94F4294B015C012AE96B
:102C600039E949E95EEBC301B2010E941528181643
:102C700054F08D859E851EDA23E333E343E151E46E
:102C80000E94882709C08D859E8514DA2DEC3CECC6
:102C90004CE551E40E9489270E94ED2723E839EF93
:102CA00042E25FE30E94F429A50194010E94F42905
:102CB00029813A814B815C810E9489274B015C010B
:102CC0008D859E8546DD2B013C018D859E85A5DD8C
:102CD0009B01AC01C301B2010E94F429A50194013A
:102CE0000E9489274B015C018D859E8545DE23E38B
:102CF00033E343E35FE30E94F429A50194010E94BA
:102D000089270E94ED2728EE38E242E25FE30E9425
:102D1000F4299B01AC0160E070E080E89FE30E9431
:102D200088279B01AC01C701B6010E94572AED8597
:102D3000FE8564AF75AF86AF97AF2E960FB6F89449
:102D4000DEBF0FBECDBFDF91CF91FF90EF90DF9040
:102D5000CF90BF90AF909F908F907F906F905F903B
:102D60004F9008954F925F926F927F928F929F92B1
:102D7000AF92BF92CF92DF92EF92FF92FC01C4809C
:102D8000D580E680F78020E030E048EC52E4C701CF
:102D9000B6010E94F4299B01AC0160E070E080EB79
:102DA00091E40E9488272DEC3CEC4CE450E40E9416
:102DB000F4299B01AC0164E578EF8DE290E40E9478
:102DC000572A2B013C0126E636E646EE5FE3C701B3
:102DD000B6010E94572A2AE939E949E950E40E94DC
:102DE000F4290E94ED274B015C0120E030E040E82F
:102DF0005FE3C301B2010E94892723E333E343E188
:102E000050E40E94F4296B017C0125EE37E54BE08C
:102E10005FE3C501B4010E94F429A7019601FF9068
:102E2000EF90DF90CF90BF90AF909F908F907F906A
:102E30006F905F904F900C94572A2F923F924F9231
:102E40005F926F927F928F929F92AF92BF92CF923A
:102E5000DF92EF92FF92CF93DF93CDB7DEB7289743
:102E60000FB6F894DEBF0FBECDBF3C010E940F0E1F
:102E70004B015C01C30176DF6B017C0126EF38E278
:102E80004CED5EE3C501B4010E94F4299B01AC0145
:102E900060E070E080E89FE30E9488271B012C011E
:102EA00027ED33EA40EF5EE3C701B6010E94F42943
:102EB0009B01AC01C201B1010E94882769837A831A
:102EC0008B839C83C3010E94770D2B013C012981D8
:102ED0003A814B815C810E94572A69837A838B8374
:102EE0009C8328EB3EE145E05EE3C301B2010E9412
:102EF000F4299B01AC0160E070E080E89FE30E9450
:102F000088276D837E838F8398872AE037ED43EA95
:102F10005DE3C701B6010E94F4299B01AC016D81FC
:102F20007E818F8198850E9488279B01AC01C50115
:102F3000B4010E94572A6D837E838F83988728E48B
:102F400031EE4AEF5EE3C301B2010E94F4299B0116
:102F5000AC0160E070E080E89FE30E9488272B01CD
:102F60003C012EEA37E441EE5EE3C501B4010E9464
:102F7000F4299B01AC01C301B2010E9488279B0187
:102F8000AC01C701B6010E94572A6B017C0129815F
:102F90003A814B815C816D817E818F8198850E9411
:102FA000F429A70196010E94F42928960FB6F894F7
:102FB000DEBF0FBECDBFDF91CF91FF90EF90DF90CE
:102FC000CF90BF90AF909F908F907F906F905F90C9
:102FD0004F903F902F9008954F925F926F927F9203
:102FE0008F929F92AF92BF92CF92DF92EF92FF9219
:102FF000CF93DF93EC01CC88DD88EE88FF88A701B2
:10300000960163E373E383EB90E40E94882720E05A
:1030100030E040E451E40E94F4299B01AC0164E5F6
:1030200078EF8DE290E40E94572A20E030E040E8FB
:103030005FE30E9489279B01AC0163E373E383E7AD
:103040009FE30E94572A4B015C0120E030E849E8E9
:1030500054E46CA57DA58EA59FA50E94F4290E942D
:10306000ED272B013C012DEC3CEC4CE450E4C70176
:10307000B6010E9419282AE939E949ED5FE30E9467
:10308000572A0E94ED276B017C0120E733E04BE3D8
:1030900051E4C301B2010E94F4292FE832EC45E764
:1030A0005FE30E948927A70196010E94F429A501E8
:1030B00094010E94F429DF91CF91FF90EF90DF906F
:1030C000CF90BF90AF909F908F907F906F905F90C8
:1030D0004F9008958F929F92AF92BF92CF92DF92BE
:1030E000EF92FF92CF93DF93EC01C8A4D9A4EAA496
:1030F000FBA42AE939E949E95EEBC701B6010E9460
:10310000152887FF70C0CE010E94EB0F4B015C01B8
:1031100026E636E642E851E40E94A42918162CF16E
:10312000CE010E94EB0F4B015C0126E636E642E839
:1031300051E40E94152818160CF455C026E636E610
:1031400042E851E4C501B4010E94882723E333E338
:1031500043EB5FE30E94F4290E94ED272AE438E064
:103160004FE35DE30E94F42979C0CE0166DE6B0176
:103170007C0126E636E642E851E4C501B4010E942E
:10318000882726E636E646E850E40E94F4290E94A5
:10319000ED274B015C012EEA37E441EE5DE3C70108
:1031A000B6010E94F4299B01AC0160E070E080E868
:1031B0009FE30E9488276B017C012CE438E541E203
:1031C0005FE3C501B4010E94F429A7019601DF91D4
:1031D000CF91FF90EF90DF90CF90BF90AF909F90F6
:1031E0008F900C94572A2AE939E949E95EEBC70127
:1031F000B6010E94A42987FD2EC0CE011EDE6B0100
:103200007C01CE010E94EB0F20E030E040E551E46C
:103210000E9489272AE939E949E950E40E94F42902
:103220000E94ED274B015C012AE037ED43EA5DE3A4
:10323000C701B6010E94F4299B01AC0160E070E077
:1032400080E89FE30E9488276B017C0123E839EF27
:1032500042E25FE3B6CF60E070E0CB01DF91CF9157
:10326000FF90EF90DF90CF90BF90AF909F908F90A6
:1032700008958F929F92AF92BF92CF92DF92EF927A
:10328000FF92CF93DF93EC010E94EB0F6B017C0167
:103290002AE939E949E151E40E94A429181664F4A5
:1032A0002AE939E949E95EEB688D798D8A8D9B8D34
:1032B0000E94152887FD2DC02AE939E949E151E42A
:1032C000C701B6010E94152818160CF461C02AE93E
:1032D00039E949E95EEB688D798D8A8D9B8D0E9475
:1032E000152887FF55C0CE010E945A102AE939E9F6
:1032F00049E151E40E9488272DEC3CEC4CE85FE367
:103300000E94F4290E94ED2722E435EA4DE55DE3B1
:1033100060C0CE0192DD6B017C01CE010E945A108B
:103320002AE939E949E051E40E94882723E333E39D
:1033300043E950E40E94F4290E94ED274B015C010F
:103340002DEC3CEC4CE45DE3C701B6010E94F4298E
:103350009B01AC0160E070E080E89FE30E94882759
:103360006B017C0123E839EF42E25FE3C501B40160
:103370000E94F429A7019601DF91CF91FF90EF9071
:10338000DF90CF90BF90AF909F908F900C94572A72
:103390002AE939E949E95EEB688D798D8A8D9B8D43
:1033A0000E94A42987FD18C0CE010E945A1020E077
:1033B00030E040EC50E40E94892723E333E343E705
:1033C00050E40E94F4290E94ED2723E839EF42E2FD
:1033D0005FE30E94F42903C060E070E0CB01DF915D
:1033E000CF91FF90EF90DF90CF90BF90AF909F90E4
:1033F0008F9008954F925F926F927F928F929F92DB
:10340000AF92BF92CF92DF92EF92FF92CF93DF9372
:1034100000D000D000D0CDB7DEB79E838D83ACDA6C
:103420004B015C018D819E8108DD6B017C01ED818A
:10343000FE81608971898289938926E636E646EAAB
:103440005FE30E94572A0E94ED272B013C012DECDF
:103450003CEC4CE45DE3C701B6010E94F4299B01FA
:10346000AC0160E070E080E89FE30E9488276983F8
:103470007A838B839C8321EB37E840E25FE3C301CF
:10348000B2010E94F42929813A814B815C810E941A
:10349000572A2B013C0123E333E343E35FE3C501F8
:1034A000B4010E94F4294B015C012DEC3CEC4CEC86
:1034B0005EE3C301B2010E94F4299B01AC01C50186
:1034C000B4010E94892769837A838B839C83ED8171
:1034D000FE8184849584A684B78420E030E040E3B4
:1034E00051E4C501B4010E94152818161CF120E012
:1034F00030E040E651E4C501B4010E9419280E9461
:10350000ED2723E839EF42E25FE30E94F4292B0123
:103510003C012FE832EC45EF5DE3C501B4010E94A8
:10352000F4290E94ED2723E839EF42E25FE30E948D
:10353000F42932C02EEE3CE74FE251E4C501B4015C
:103540000E9488270E94ED272B013C012AE037EDDD
:1035500043EA5DE3C701B6010E94F4299B01AC0177
:1035600060E070E080E89FE30E9488274B015C01E7
:103570002CE438E541E25FE3C301B2010E94F42983
:10358000A50194010E94572A2AE9422E29E9522EC8
:1035900029E6622E21E4722E9B01AC01C301B20127
:1035A0000E94F42929813A814B815C810E948927FC
:1035B0004B015C018D819E810FDD9B01AC01C5013A
:1035C000B4010E9489274B015C018D819E8182DDBF
:1035D0002B013C018D819E814CDE9B01AC01C3011E
:1035E000B2010E94F429A50194010E9489276983F0
:1035F0007A838B839C832AE939E949E95EEBED8183
:10360000FE8160A571A582A593A50E94152887FF5C
:103610004AC08D819E810E94EB0F4B015C0126E622
:1036200036E642E851E40E94A42926E636E642E85E
:1036300051E418162CF5C501B4010E94882726E62E
:1036400036E646E850E40E94F4290E94ED272B015B
:103650003C012EEA37E441EE5DE3C701B6010E946A
:10366000F4299B01AC0160E070E080E89FE30E94D8
:1036700088274B015C012CE438E541E25FE33DC063
:10368000C501B4010E94882723E333E343EB5FE3E2
:103690000E94F4290E94ED272AE438E04FE35DE31D
:1036A0000E94F42932C08D819E810E94EB0F20E0A0
:1036B00030E040E551E40E9489272AE939E949E9E7
:1036C00050E40E94F4290E94ED272B013C012AE0DE
:1036D00037ED43EA5DE3C701B6010E94F4299B017F
:1036E000AC0160E070E080E89FE30E9488274B0116
:1036F0005C0123E839EF42E25FE3C301B2010E94BB
:10370000F429A50194010E94572A2DEC3CEC44E4D5
:1037100051E40E94F42929813A814B815C810E9405
:1037200089270E94ED2728EE38E242E25FE30E94FB
:10373000F4299B01AC0160E070E080E89FE30E9407
:1037400088279B01AC01C701B6010E94572AED8171
:10375000FE81E05CFF4F6083718382839383ED8100
:10376000FE81C0ACD1ACE2ACF3ACA701960160E045
:1037700070E080E89FE30E9488272DEC3CEC4CE849
:103780005FE30E9419289B01AC01C701B6010E94AA
:10379000572A2D813E812C5B3F4FF9016083718355
:1037A0008283938326960FB6F894DEBF0FBECDBFFB
:1037B000DF91CF91FF90EF90DF90CF90BF90AF90CF
:1037C0009F908F907F906F905F904F9008951F9281
:1037D0000F920FB60F9211240BB60F922F933F93B7
:1037E0004F935F936F937F938F939F93AF93BF9309
:1037F000EF93FF936EE287E00E945C068AE18A9570
:10380000F1F700C0FF91EF91BF91AF919F918F9120
:103810007F916F915F914F913F912F910F900BBED0
:103820000F900FBE0F901F901895CF93DF93CDB7D9
:10383000DEB7C05BD1400FB6F894DEBF0FBECDBF80
:103840000E944F0A2FE738E341E0215030404040CA
:10385000E1F700C000000E941A065FE788E391E0EC
:10386000515080409040E1F700C000000E942F01BD
:10387000AFE7B8E3E1E0A150B040E040E1F700C0BD
:1038800000000E94C001FFE728E331E0F150204032
:103890003040E1F700C000000E94E2004FE758E32B
:1038A00081E0415050408040E1F700C000000E949C
:1038B0009A079FEFA0E7B2E09150A040B040E1F737
:1038C00000C000000E94C304EFEFF0E722E0E150E7
:1038D000F0402040E1F700C000000E945E053FEF8D
:1038E00044E35CE0315040405040E1F700C000004C
:1038F0000E9467048FEF90E7A2E081509040A040C3
:10390000E1F700C000000E94EB05BFEFE0E7F2E046
:10391000B150E040F040E1F700C000000E94810299
:103920002FEF34E34CE0215030404040E1F700C03D
:1039300000000E940B03C755DE4F688379838A839A
:103940009B83C95AD1400E94A3075FE788E391E0B7
:10395000515080409040E1F700C000000E949F0756
:10396000AFEFB0E7E2E0A150B040E040E1F700C0C7
:1039700000000E94F10AFFE728E331E0F150204007
:103980003040E1F700C000000E94E2004FEF50E736
:1039900082E0415050408040E1F700C000000E94AA
:1039A00029069FE7A8E3B1E09150A040B040E1F7BD
:1039B00000C0000089E0ECE0F1E0DE01A35BBE4F57
:1039C00001900D928A95E1F7EDE4F1E0EC0FFD1F17
:1039D000399687E1DF011D928A95E9F70E9470060A
:1039E000E82FF0E0C958DE4FF983E883C757D1408C
:1039F0000E942506BE9A89B7846089BF80916A00BB
:103A0000806280936A007894FE01E753FF4F80E064
:103A100090E0A8ECB1E480839183A283B383148AFD
:103A2000158A168A178A108E118E128E138E80E0D8
:103A300090E0A0E8BFEB80A791A7A2A7B3A714AA24
:103A400015AA16AA17AA8CE59FE8A2E0BFE3848313
:103A50009583A683B78380E090E0A8ECB2E48087EA
:103A60009187A287B38780E090E0A0E8B1E48487E3
:103A70009587A687B78780E090E0A0E8BFE3808BBA
:103A8000918BA28BB38B80E090E0A6E9B3E4848FA6
:103A9000958FA68FB78F82E598EBAEE9BEE380A342
:103AA00091A3A2A3B3A38DEC9CECACECBEE384A3E6
:103AB00095A3A6A3B7A38DEC9CECACE4BEEB84A7C6
:103AC00095A7A6A7B7A780E090E0A0E0B0EC80ABF8
:103AD00091ABA2ABB3AB4091210250912202609115
:103AE0002302709124020091260210912702209156
:103AF000280230912902DE01AF5EBE4F90960D93F1
:103B00001D932D933C93939794964D935D936D9352
:103B10007C939797D0961D921D921D921C92D397DD
:103B200098961D921D921D921C929B97E0E7CE2EB7
:103B3000EDE6DE2EE2ECEE2EEAE4FE2E5C96CD9271
:103B4000DD92ED92FC925F970D931D932D933C9324
:103B5000139714964D935D936D937C9317971896D6
:103B60001D921D921D921C921B971C961D921D92D8
:103B70001D921C921F972FEF3CE241E351E0215030
:103B8000304040405040D9F700C00000CC56DE4FD6
:103B90001882C459D140CD56DE4F1882C359D14046
:103BA000C556DE4F1882CB59D140C456DE4F18821D
:103BB000CC59D140C358DE4F1882CD57D140C2589E
:103BC000DE4F1882CE57D140C158DE4F1882CF57F2
:103BD000D140C058DE4F1882C058D140CF57DE4F79
:103BE0001882C158D140CE57DE4F1882C258D140FA
:103BF000412C512C3201C956DE4F1882C759D14091
:103C0000C856DE4F1882C859D140C756DE4F1882B9
:103C1000C959D140C656DE4F1882CA59D1401D013C
:103C200078940E948102CF55DE4F6883C15AD140FB
:103C3000CE55DE4F7883C25AD140CD55DE4F8883B2
:103C4000C35AD140CC55DE4F9883C45AD1400E940C
:103C50000B03C356DE4F6883CD59D140C256DE4FA9
:103C60007883CE59D140C156DE4F8883CF59D14099
:103C7000C056DE4F9883C05AD1400E94F70524E019
:103C8000969587952A95E1F7282F30E040E050E09F
:103C9000C355DE4F288339834A835B83CD5AD14095
:103CA0000E944707C957DE4F99838883C758D14080
:103CB0000E942907C757DE4F99838883C958D1408E
:103CC00080E00E94B207CB56DE4F99838883C559A6
:103CD000D140C356DE4F6881CD59D140C256DE4F28
:103CE0007881CE59D140C156DE4F8881CF59D1401D
:103CF000C056DE4F9881C05AD1400E94B2286B0155
:103D00007C01C755DE4F688179818A819B81C95AC0
:103D1000D1400E94B2289B01AC01C701B6010E94AC
:103D200019280E94B4296B017C01CF55DE4F6881B0
:103D3000C15AD140CE55DE4F7881C25AD140CD55BF
:103D4000DE4F8881C35AD140CC55DE4F9881C45A8A
:103D5000D14024E630E040E050E00E94C82BCA0188
:103D6000B9016F5E7E4F8F4F9F4F0E94B428A7010D
:103D700096010E94F429905821EF3DEB49EE51E461
:103D80000E94F4290E948128CD57DE4F68837983F1
:103D90008A839B83C358D140CD57DE4F0881198158
:103DA000C358D1400E94CC04C956DE4F6881C75920
:103DB000D140C856DE4F7881C859D140C756DE4F32
:103DC0008881C959D140C656DE4F9881CA59D14021
:103DD0000E94B228C753DF4F688379838A839B830D
:103DE000C95CD040CB56DE4F48815981C559D1407E
:103DF000BA01550F880B990B0E94B428C352DF4FAC
:103E0000688379838A839B83CD5DD040C757DE4F1B
:103E1000A881B981C958D140BD01BB0F880B990B4E
:103E20000E94B428CF51DF4F688379838A839B83B4
:103E3000C15ED04020E030E040E85FEBCF50DF4F84
:103E4000288339834A835B83C15FD040C957DE4FE3
:103E500048815981C758D140BA01550F880B990B39
:103E60000E94B428C350DF4F688379838A839B8381
:103E7000CD5FD0408CE59FE8A2E0BFE3C353DF4FA6
:103E800088839983AA83BB83CD5CD04020E030E057
:103E900048EC52E4CF52DF4F288339834A835B8357
:103EA000C15DD04080E090E0A0E8B1E4CB52DF4FAC
:103EB00088839983AA83BB83C55DD04020E030E02E
:103EC00040E85FE3C752DF4F288339834A835B832F
:103ED000C95DD04080E090E0A6E9B3E4CB51DF4F6C
:103EE00088839983AA83BB83C55ED04022E538EBE3
:103EF0004EE95EE3C751DF4F288339834A835B83F2
:103F0000C95ED0408DEC9CECACECBEE3C351DF4FFE
:103F100088839983AA83BB83CD5ED0408DEC9CECD3
:103F2000ACE4BEEBCB50DF4F88839983AA83BB837D
:103F3000C55FD04080E090E0A0E0B0ECC750DF4F1C
:103F400088839983AA83BB83C95FD040CE018753FE
:103F50009F4F0E949310CE0187539F4F0E940015E0
:103F6000CE0187539F4F46DA8BE30E945F076C01B7
:103F70008DE30E945F07BC01990F880B990B0E948B
:103F8000B4282FE632E143E051E40E9419282AE5E3
:103F900034E64BE75FE30E94F4290E948128CB5569
:103FA000DE4F6883C55AD140CA55DE4F7883C65A62
:103FB000D1408FE30E945F077C01B601DD0C880BC6
:103FC000990B0E94B4282FE632E143E051E40E94AD
:103FD00019282AE534E64BE75FE30E94F4290E94A2
:103FE0008128072E000C880B990B0E94B4284B01E6
:103FF0005C01B701FF0C880B990B0E94B4282FE6D7
:1040000032E143E051E40E9419282AE534E64BE707
:104010005FE30E94F4290E948128072E000C880B80
:10402000990B0E94B4286B017C0129EE36E241E72E
:104030005FE3C501B4010E94F429C557DE4F6883D0
:1040400079838A839B83CB58D14025E735ED4BEAB2
:104050005EE3C701B6010E94F4299B01AC01C5577C
:10406000DE4F688179818A819B81CB58D14050D7BE
:104070000E948128C557DE4F688379838A839B839A
:10408000CB58D14029EE36E241E75FE3C701B601E4
:104090000E94F4296B017C0125E735ED4BEA5EE3D4
:1040A000C501B4010E94F4299B01AC01C701B6010E
:1040B00030D70E948128C955DE4F6883C75AD14046
:1040C000C855DE4F7883C85AD1400E94CB0A4B01B5
:1040D0005C012091210230912202409123025091F3
:1040E0002402C758DE4F288339834A835B83C9572C
:1040F000D140C0902602D0902702E0902802F09094
:104100002902F10180A191A1A2A1B3A18083918391
:10411000A283B38384A195A1A6A1B7A1848395832B
:10412000A683B78380A991A9A2A9B3A984879587FB
:10413000A687B78720A531A542A553A5C157DE4F55
:10414000288339834A835B83CF58D14020873187C6
:1041500042875387C0A2D1A2E2A2F3A2C758DE4F82
:10416000288139814A815B81C957D14024A335A375
:1041700046A357A3CD57DE4FE881F981C358D140FC
:10418000BF01FF0F880B990BEFD7D101D0966D932C
:104190007D938D939C93D397F10180A691A6A2A6BF
:1041A000B3A6C157DE4F288139814A815B81CF5840
:1041B000D140C501B401ACD620E030E0A90135D72B
:1041C000811116C0D101D496CD92DD92ED92FC9270
:1041D000D797C758DE4F288139814A815B81C957FB
:1041E000D140D8962D933D934D935C93DB976AC055
:1041F000C1010E94E709D1019C962D913D914D91FD
:104200005C919F97C758DE4F288339834A835B832D
:10421000C957D1409096CD90DD90ED90FC9093974A
:1042200018962D913D914D915C911B9798966D91AB
:104230007D918D919C919B976BD64B015C01F10117
:104240002081318142815381C701B60161D6C758AF
:10425000DE4F288139814A815B81C957D1400E9454
:10426000F429A5019401E5D6A701960152D6D10102
:10427000D4966D937D938D939C93D7979496CD9080
:10428000DD90ED90FC90979714962D913D914D9176
:104290005C911797C701B6013BD6C758DE4F2881FE
:1042A00039814A815B81C957D1400E94F429A50117
:1042B0009401BFD6A70196012CD6F10160AF71AF72
:1042C00082AF93AF80912C028F9380912B028F93BA
:1042D000809130028F9380912F028F9380913402CE
:1042E0008F93809133028F937F926F925F924F9260
:1042F0008CE491E09F938F937E01F3EBEF1AFEEF36
:10430000FF0AFF92EF920E94282C60E2C7010E94F0
:10431000E4061F928F93C858DE4F2881C857D140BA
:104320002F93C958DE4F3881C757D1403F938BE553
:10433000C82E81E0D82EDF92CF925E0143E9A41A05
:104340004EEFB40ABF92AF920E94282C5FEB84ED2F
:1043500091E0515080409040E1F700C00000CC5700
:10436000DE4FA881C458D140AF93CD57DE4FB881FE
:10437000C358D140BF931F921F921F92C355DE4F67
:10438000E881CD5AD140EF93CC55DE4FF881C45A25
:10439000D140FF93CD55DE4F2881C35AD1402F9392
:1043A000CE55DE4F3881C25AD1403F93CF55DE4FB4
:1043B0004881C15AD1404F93C056DE4F5881C05AF0
:1043C000D1405F93C156DE4F8881CF59D1408F9342
:1043D000C256DE4F9881CE59D1409F93C356DE4FCF
:1043E000A881CD59D140AF937F926F925F924F9247
:1043F00082E691E09F938F93FF92EF920E94282C88
:104400000FB6F894DEBF0FBECDBF60E2C7010E94B9
:10441000E4061F928F93C858DE4FF881C857D140E9
:10442000FF93C958DE4F2881C757D1402F93DF92A1
:10443000CF92BF92AF920E94282C3FEB44ED51E007
:10444000315040405040E1F700C00000C857DE4FF7
:104450008881C858D1408F93C957DE4F9881C7587B
:10446000D1409F93C657DE4FA881CA58D140AF9321
:10447000C757DE4FB881C958D140BF937F926F9222
:104480005F924F9287E791E09F938F93FF92EF9215
:104490000E94282C60E2C7010E94E4061F928F93BD
:1044A000C858DE4FE881C857D140EF93C958DE4F56
:1044B000F881C757D140FF93DF92CF92BF92AF925E
:1044C0000E94282C2FEB34ED41E021503040404039
:1044D000E1F700C0000020E030E048EC52E4C35FA8
:1044E000DE4F688179818A819B81CD50D1407CD714
:1044F00008D67F936F9320E030E048EC52E4C75F2A
:10450000DE4F688179818A819B81C950D1406CD707
:10451000F8D57F936F9320E030E048EC52E4CB5F16
:10452000DE4F688179818A819B81C550D1405CD7FB
:10453000E8D57F936F9320E030E048EC52E4CF5F02
:10454000DE4F688179818A819B81C150D1404CD7EF
:10455000D8D57F936F937F926F925F924F9283E84B
:1045600091E09F938F93FF92EF920E94282C0FB6B9
:10457000F894DEBF0FBECDBF60E2C7010E94E40623
:104580001F928F93C858DE4F9881C857D1409F9390
:10459000C958DE4FA881C757D140AF93DF92CF9261
:1045A000BF92AF920E94282CBFEBE4EDF1E0B15036
:1045B000E040F040E1F700C0000020E030E44CE1D2
:1045C00056E4D101D8966D917D918D919C91DB97A8
:1045D0000BD79CD59F938F937F936F9320E030E40C
:1045E0004CE156E4F10164A975A986A997A9FCD606
:1045F0008DD59F938F937F936F937F926F925F92EE
:104600004F9285E991E09F938F93FF92EF920E94E2
:10461000282C60E2C7010E94E4061F928F93C858BD
:10462000DE4FF881C857D140FF93C958DE4F28812B
:10463000C757D1402F93DF92CF92BF92AF920E9483
:10464000282C3FEB44ED51E0315040405040E1F721
:1046500000C000000FB6F894DEBF0FBECDBFC65637
:10466000DE4F9881CA59D1409F93C756DE4FA8812B
:10467000C959D140AF93C856DE4FB881C859D1400F
:10468000BF93C956DE4FE881C759D140EF9360917F
:10469000210270912202809123029091240231D54F
:1046A0007F936F9360912602709127028091280278
:1046B0009091290226D57F936F937F926F925F929C
:1046C0004F9283EA91E09F938F93FF92EF920E9423
:1046D000282C60E2C7010E94E4061F928F93C858FD
:1046E000DE4FF881C857D140FF93C958DE4F28816B
:1046F000C757D1402F93DF92CF92BF92AF920E94C3
:10470000282C0FB6F894DEBF0FBECDBF0F311105B8
:104710000CF0DDC305311105DCF4CD56DE4F5881B8
:10472000C359D140552361F082E381BF8FEF96E1F9
:10473000A1E181509040A040E1F700C0000011BE0F
:10474000CD56DE4F1882C359D1400B301105C4F04D
:10475000CC56DE4FB881C459D140B11111C0C69AB0
:10476000EFEFF0E722E0E150F0402040E1F700C039
:104770000000C69831E0CC56DE4F3883C459D14092
:10478000C1010E94E709C557DE4F48815981CB58C6
:10479000D140BA01550F880B990BE6D420E030E0E8
:1047A00045E754E446D4A6D320E030E044E353E4A4
:1047B0001BD62BED3FE049E450E43BD4A7D4F62EC2
:1047C000C758DE4F7883C957D140C956DE4F68833A
:1047D000C759D140C856DE4F7883C859D140C75613
:1047E000DE4F8883C959D140C656DE4F9883CA59D7
:1047F000D140CC56DE4F5881C459D140552309F4DD
:104800009EC1C556DE4F2881CB59D140C456DE4FDC
:104810003881CC59D140C358DE4F4881CD57D14063
:10482000C258DE4F5881CE57D140C158DE4F688103
:10483000CF57D140C058DE4F7881C058D140CF57B4
:10484000DE4F8881C158D140CE57DE4F9881C25883
:10485000D1402F3F3F40410551056105710581055C
:10486000910511F008F06BC120E030E048EC52E413
:10487000CF5FDE4F688179818A819B81C150D140B1
:10488000B3D544D4C556DE4F0881CB59D140C45668
:10489000DE4F1881CC59D140C8010E94440D20E060
:1048A00030E048EC52E4CB5FDE4F688179818A8149
:1048B0009B81C550D14098D529D44B015C0198010A
:1048C000C358DE4F4881CD57D140C258DE4F588182
:1048D000CE57D140C158DE4F6881CF57D140C05824
:1048E000DE4F7881C058D140CF57DE4F8881C15804
:1048F000D140CE57DE4F9881C258D140A2E074D744
:10490000B401C9010E94440D20E030E048EC52E4BB
:10491000C75FDE4F688179818A819B81C950D14010
:1049200063D5F4D34B015C019801C358DE4F488135
:10493000CD57D140C258DE4F5881CE57D140C158D3
:10494000DE4F6881CF57D140C058DE4F7881C058C4
:10495000D140CF57DE4F8881C158D140CE57DE4F6E
:104960009881C258D140A4E03FD7B401C9010E9448
:10497000440D20E030E048EC52E4C35FDE4F688134
:1049800079818A819B81CD50D1402ED5BFD34B01F7
:104990005C019801C358DE4F4881CD57D140C258C1
:1049A000DE4F5881CE57D140C158DE4F6881CF5776
:1049B000D140C058DE4F7881C058D140CF57DE4F2C
:1049C0008881C158D140CE57DE4F9881C258D1401E
:1049D000A6E00AD7B401C9010E94440D20E030E4EA
:1049E0004CE156E4F10164A975A986A997A9FCD404
:1049F0008DD34B015C019801C358DE4F4881CD57E0
:104A0000D140C258DE4F5881CE57D140C158DE4FF9
:104A10006881CF57D140C058DE4F7881C058D1400F
:104A2000CF57DE4F8881C158D140CE57DE4F988195
:104A3000C258D140A8E0D8D6B501A401C9010E944E
:104A4000510D20E030E44CE156E4D101D8966D914F
:104A50007D918D919C91DB97C7D458D34B015C011C
:104A60009801C358DE4F4881CD57D140C258DE4F20
:104A70005881CE57D140C158DE4F6881CF57D140C1
:104A8000C058DE4F7881C058D140CF57DE4F888163
:104A9000C158D140CE57DE4F9881C258D140ACE0CA
:104AA000A3D6B501A401C9010E94510D9801C358B4
:104AB000DE4F4881CD57D140C258DE4F5881CE5786
:104AC000D140C158DE4F6881CF57D140C058DE4F2A
:104AD0007881C058D140CF57DE4F8881C158D1402E
:104AE000CE57DE4F9881C258D140A0E17DD6C55641
:104AF000DE4F2883CB59D140C456DE4F3883CC5982
:104B0000D140C358DE4F4883CD57D140C258DE4F05
:104B10005883CE57D140C158DE4F6883CF57D1401C
:104B2000C058DE4F7883C058D140CF57DE4F8883BE
:104B3000C158D140CE57DE4F9883C258D140C1579B
:104B4000DE4FF882CF58D140C758DE4FB881C957E1
:104B5000D140BF93C157DE4FE881CF58D140EF938A
:104B600020E030E048EC52E4C35FDE4F6881798199
:104B70008A819B81CD50D14037D4C8D27F936F9327
:104B800020E030E048EC52E4C75FDE4F6881798175
:104B90008A819B81C950D14027D4B8D27F936F932B
:104BA00020E030E048EC52E4CB5FDE4F6881798151
:104BB0008A819B81C550D14017D4A8D27F936F932F
:104BC00020E030E048EC52E4CF5FDE4F688179812D
:104BD0008A819B81C150D14007D498D27F936F9333
:104BE00020E030E543EC57E460912102709122020D
:104BF0008091230290912402F7D388D29F938F93C0
:104C00007F936F9320E030E543EC57E460912602F8
:104C1000709127028091280290912902E5D376D2E3
:104C20009F938F937F936F9320E030E543EC57E49D
:104C3000D101D8966D917D918D919C91DB97D4D3C4
:104C400065D29F938F937F936F9320E030E543EC81
:104C500057E4F10164A975A986A997A9C5D356D2CD
:104C60009F938F937F936F93812C912CCD57DE4F21
:104C7000A880B980C358D140C957DE4FC880D980B9
:104C8000C758D140C757DE4FE880F980C958D14096
:104C9000C955DE4F0881C75AD140C855DE4F18812B
:104CA000C85AD140CB55DE4F2881C55AD140CA558C
:104CB000DE4F3881C65AD140C557DE4F48815981F1
:104CC000CB58D140C301B2010E94380BC758DE4F08
:104CD000F881C957D140FF93C157DE4F2881CF5883
:104CE000D1402F9320E030E048EC52E4C35FDE4F28
:104CF000688179818A819B81CD50D14075D306D25C
:104D00007F936F9320E030E048EC52E4C75FDE4FC2
:104D1000688179818A819B81C950D14065D3F6D160
:104D20007F936F9320E030E048EC52E4CB5FDE4F9E
:104D3000688179818A819B81C550D14055D3E6D164
:104D40007F936F9320E030E048EC52E4CF5FDE4F7A
:104D5000688179818A819B81C150D14045D3D6D168
:104D60007F936F9320E030E543EC57E4609121029C
:104D700070912202809123029091240235D3C6D1F2
:104D80009F938F937F936F9320E030E543EC57E43C
:104D90006091260270912702809128029091290249
:104DA00023D3B4D19F938F937F936F9320E030E50B
:104DB00043EC57E4D101D8966D917D918D919C91F2
:104DC000DB9712D3A3D19F938F937F936F9320E0B0
:104DD00030E543EC57E4F10164A975A986A997A9C8
:104DE00003D394D19F938F937F936F93CA56DE4FD3
:104DF000F881C659D140FF93CB56DE4F2881C55963
:104E0000D1402F93CC57DE4F3881C458D1403F93C7
:104E1000CD57DE4F4881C358D1404F93C857DE4F1E
:104E20005881C858D1405F93C957DE4F8881C75811
:104E3000D1408F93C657DE4F9881CA58D1409F9377
:104E4000C757DE4FA881C958D140AF93C855DE4F30
:104E5000B881C85AD140BF93C955DE4FE881C75ABF
:104E6000D140EF93CA55DE4FF881C65AD140FF9327
:104E7000CB55DE4F2881C55AD1402F93C457DE4F02
:104E80003881CC58D1403F93C557DE4F4881CB582D
:104E9000D1404F937F926F925F924F9283EB91E05C
:104EA0009F938F938E010F5F1F4F1F930F93D0D44B
:104EB0000FB6F894DEBF0FBECDBFC8010E94EC0054
:104EC0009FEF491A590A690A790A0C94101EA1E049
:104ED000CD56DE4FA883C359D1403ACC1092080278
:104EE00010920702E7EFF1E0119282E0E730F80755
:104EF000D9F708959F939F7772D10F9000203AF4CD
:104F00009058A2EA2AED3FE049E450E413D0E2C110
:104F10005058BB27AA270ED0DDC1CED130F0D3D157
:104F200020F031F49F3F11F41EF49EC10EF4E09581
:104F3000E7FB94C1E92FDFD180F3BA17620773074B
:104F40008407950718F071F49EF5F7C10EF4E0950B
:104F50000B2EBA2FA02D0B01B90190010C01CA0133
:104F6000A0011124FF27591B99F0593F50F4503EDE
:104F700068F11A16F040A22F232F342F4427585FD0
:104F8000F3CF469537952795A795F0405395C9F7E8
:104F90007EF41F16BA0B620B730B840BBAF09150A0
:104FA000A1F0FF0FBB1F661F771F881FC2F70EC03F
:104FB000BA0F621F731F841F48F487957795679512
:104FC000B795F7959E3F08F0B3CF9395880F08F0FB
:104FD0009927EE0F979587950895DF93DD27B92FD1
:104FE000BF7740E85FE31616170648075B0710F423
:104FF000D92FAED19F938F937F936F93E6D2ECE836
:10500000F0E035D167D12F913F914F915F91F8D169
:10501000DD2349F09058A2EA2AED3FE049EC5FE336
:10502000D0785D2787DFDF9155C1F4D008F481E0A7
:1050300008950CD04FC147D140F03ED130F021F45B
:105040005F3F19F00BC1511179C10EC154D198F3D2
:105050009923C9F35523B1F3951B550BBB27AA27F9
:1050600062177307840738F09F5F5F4F220F331F6B
:10507000441FAA1FA9F333D00E2E3AF0E0E830D037
:1050800091505040E695001CCAF729D0FE2F27D03A
:10509000660F771F881FBB1F261737074807AB0708
:1050A000B0E809F0BB0B802DBF01FF2793585F4F7D
:1050B0002AF09E3F510568F0D1C040C15F3FECF33C
:1050C000983EDCF3869577956795B795F7959F5F42
:1050D000C9F7880F911D9695879597F90895E1E096
:1050E000660F771F881FBB1F621773078407BA07F5
:1050F00020F0621B730B840BBA0BEE1F88F7E09550
:10510000089504D06894B11119C10895FCD088F0B5
:105110009F5790F0B92F9927B751A0F0D1F0660FA3
:10512000771F881F991F1AF0BA95C9F712C0B130BE
:1051300081F003D1B1E0089500C1672F782F88274F
:10514000B85F39F0B93FCCF3869577956795B395FD
:10515000D9F73EF490958095709561957F4F8F4F6C
:105160009F4F0895E89409C097FB3EF49095809571
:10517000709561957F4F8F4F9F4F9923A9F0F92F1D
:1051800096E9BB279395F695879577956795B7959B
:10519000F111F8CFFAF4BB0F11F460FF1BC06F5F81
:1051A0007F4F8F4F9F4F16C0882311F096E911C093
:1051B000772321F09EE8872F762F05C0662371F0B4
:1051C00096E8862F70E060E02AF09A95660F771FC8
:1051D000881FDAF7880F9695879597F90895DF93DA
:1051E000CF931F930F938B01EC01E9EBF0E03FD0DD
:1051F00071D09801AE018B01EC0160E070E080E8B5
:105200009FE386DEA4D19801AE010F911F91CF914B
:10521000DF91F6C0990F0008550FAA0BE0E8FEEFEA
:1052200016161706E807F907C0F012161306E4076A
:10523000F50798F0621B730B840B950B39F40A2663
:1052400061F0232B242B252B21F408950A2609F441
:10525000A140A6958FEF811D811D089597F99F6745
:1052600080E870E060E008959FEF80EC0895DF93A0
:10527000CF931F930F93FF92EF92DF927B018C01EC
:10528000689405C0DA2EEF01BBD0FE01E894A59129
:105290002591359145915591AEF3EF014BDEFE011D
:1052A0009701A801DA9479F7DF90EF90FF900F91C2
:1052B0001F91CF91DF91089500240A9416161706C6
:1052C00018060906089500240A94121613061406F7
:1052D00005060895092E0394000C11F4882352F05A
:1052E000BB0F40F4BF2B11F460FF04C06F5F7F4F12
:1052F0008F4F9F4F089557FD9058440F551F59F0F9
:105300005F3F71F04795880F97FB991F61F09F3FB2
:1053100079F087950895121613061406551FF2CFDB
:105320004695F1DF08C0161617061806991FF1CF2B
:1053300086957105610508940895E894BB27662752
:105340007727CB0197F9089565DF08F48FEF08956B
:105350009B01AC0160E070E080E89FE36ACE0EF054
:1053600068C182CF68947ACFCEDFC8F39923D1F396
:10537000C6F3DF93CF931F930F93FF92C92FDD27BF
:1053800088232AF02197660F771F881FDAF720E01D
:1053900030E040E85FEB9FE3883920F0803E30F05A
:1053A00021968F77B6DDE1EEF0E003C0B2DDEEE0EE
:1053B000F1E05DDF8B01BE01EC01FB2E6F5771093F
:1053C0007595771F880B990BCFDE28E132E741E313
:1053D0005FE316D0AF2D9801AE01FF900F911F91A2
:1053E000CF91DF91A7DD76CF0BD074CF65DF28F0AA
:1053F0006ADF18F0952309F031CF36CF11249ECF04
:105400007ADFA0F3959FD1F3950F50E0551F629F6F
:10541000F001729FBB27F00DB11D639FAA27F00D0D
:10542000B11DAA1F649F6627B00DA11D661F829F34
:105430002227B00DA11D621F739FB00DA11D621F19
:10544000839FA00D611D221F749F3327A00D611D36
:10545000231F849F600D211D822F762F6A2F112418
:105460009F5750408AF0E1F088234AF0EE0FFF1F6B
:10547000BB1F661F771F881F91505040A9F79E3FA2
:10548000510570F0EBCE5ACF5F3FECF3983EDCF362
:10549000869577956795B795F795E7959F5FC1F7DF
:1054A000FE2B880F911D9695879597F90895FA011F
:1054B000EE0FFF1F30962105310599F16115710539
:1054C00061F48038BFE39B0749F168949038810507
:1054D00061F08038BFEF9B0741F0992342F5FF3F11
:1054E000E1053105210511F1E8940894E795D9010A
:1054F000AA2329F4AB2FBE2FF85FD0F310C0FF5FB3
:1055000070F4A695E0F7F73950F019F0FF3A38F447
:105510009F779F930CD00F9007FC905808953EF012
:10552000A3CE60E070E080E89FE308954FE79F77A7
:105530005F934F933F932F9317DF2F913F914F919D
:105540005F9152DF4AC011F40EF48ECE72C0DBDEE2
:10555000D0F39923D9F3CEF39F57550B87FF77D01C
:105560000024A0E640EA900180585695979528F4CB
:10557000805C660F771F881F20F0261737074807C3
:1055800030F4621B730B840B202931294A2BA6951A
:1055900017940794202531254A2758F7660F771F5F
:1055A000881F20F026173707480730F4620B730B6B
:1055B000840B200D311D411DA09581F7B901842F69
:1055C0009158880F9695879508959B01AC010CCF53
:1055D00019F40EF043CEB1CE47CE95DEC8F396381F
:1055E000C0F707F80F92E8942BE33AEA48EB5FE73D
:1055F00009DF0F920F920F924DB75EB70F9264D0F2
:10560000EBE3F1E034DE4F915F91EF91FF91E5958F
:10561000EE1FFF1F49F0FE57E0684427EE0F441FBE
:10562000FA95E1F74195550B1BD00F9007FE90CEF0
:1056300008959F3F31F0915020F4879577956795B5
:10564000B795880F911D9695879597F90895915074
:105650005040660F771F881FD2F70895FFCDE9CF1E
:1056600052DEE8F39923D9F3940F511DBBF3915007
:10567000504094F059F0882332F0660F771F881F4E
:1056800091505040C1F79E3F510544F7880F911D3E
:105690009695879597F908955F3FACF0983E9CF0FA
:1056A000BB27869577956795B79508F4B160939574
:1056B000C1F7BB0F58F711F460FFE8CF6F5F7F4F62
:1056C0008F4F9F4FE3CF3ACEFA01DC01AA0FBB1FE9
:1056D0009B01AC01BF5728F4222733274427507879
:1056E0001FC0B75188F4AB2F0024469537952795F6
:1056F000011CA395D2F3002069F0220F331F441F31
:10570000B395DAF30DD004CC61307105A0E88A07B7
:10571000B94630F49B01AC0166277727882790783B
:10572000309621F020833183428353830895DB0137
:105730008F939F9349D0BF91AF91A29F800D911DF0
:10574000A39F900DB29F900D11240895A1E21A2EEF
:10575000AA1BBB1BFD010DC0AA1FBB1FEE1FFF1F15
:10576000A217B307E407F50720F0A21BB30BE40B65
:10577000F50B661F771F881F991F1A9469F76095AC
:105780007095809590959B01AC01BD01CF01089566
:10579000052E97FB16F400940FD057FD05D0D6DFE9
:1057A00007FC02D046F408C05095409530952195ED
:1057B0003F4F4F4F5F4F089590958095709561953D
:1057C0007F4F8F4F9F4F089524D0A59F900DB49F7A
:1057D000900DA49F800D911D11240895B7FFF4CF63
:1057E000F3DF821B930B08950024A7FD00942A0F7A
:1057F000301D401D501D601D701D801D901D0895A1
:10580000EE0FFF1F0024001C0BBE0790F691E02D49
:105810000994A29FB001B39FC001A39F700D811D89
:105820001124911DB29F700D811D1124911D0895A9
:10583000FB01DC018D91019080190110D9F3990BC6
:105840000895FB01DC0101900D920020E1F708951D
:105850000F931F93CF93DF93CDB7DEB72E970FB67D
:10586000F894DEBF0FBECDBF0D891E8986E08C8304
:105870001A8309838FEF9FE79E838D83AE01475E76
:105880005F4F6F89788DCE01019610D0EF81F8853A
:10589000E00FF11F10822E960FB6F894DEBF0FBEF8
:1058A000CDBFDF91CF911F910F9108952F923F921D
:1058B0004F925F926F927F928F929F92AF92BF9220
:1058C000CF92DF92EF92FF920F931F93CF93DF93CC
:1058D000CDB7DEB72B970FB6F894DEBF0FBECDBFA6
:1058E0006C017B018A01FC0117821682838181FF92
:1058F000BFC1CE0101963C01F6019381F70193FDF2
:10590000859193FF81917F01882309F4ADC1853290
:1059100039F493FD859193FF81917F01853221F4C4
:10592000B60190E0D6D1E8CF912C212C312CFFE1AB
:10593000F315D8F08B3279F038F4803279F0833275
:10594000A1F4232D20611DC08D3261F0803369F4F4
:10595000232D216016C0832D8260382EE32DE46054
:105960003E2E2AC0F32DF8601DC037FC2DC020ED5F
:10597000280F2A3040F08E32B9F436FC75C1232D41
:105980002064322E19C036FE06C08AE0989E200D93
:105990001124922E11C0EAE02E9E200D1124222EF9
:1059A000F32DF0623F2E08C08C3621F4832D8068E1
:1059B000382E02C0883641F4F70193FD859193FF9C
:1059C00081917F018111B3CF982F9F7D95549330A2
:1059D00028F40C5F1F4F9FE399830DC0833631F08D
:1059E000833771F0833509F055C020C0F8018081FC
:1059F00089830E5F1F4F88248394912C530112C01A
:105A00002801F2E04F0E511CF801A080B18036FE53
:105A100003C0692D70E002C06FEF7FEFC5014ED16A
:105A20004C018201F32DFF773F2E15C0280122E0A3
:105A3000420E511CF801A080B18036FE03C0692DD2
:105A400070E002C06FEF7FEFC5012DD14C01F32D47
:105A5000F0683F2E820133FC19C0822D90E0881639
:105A60009906A0F4B60180E290E033D12A94F5CFF4
:105A7000F50137FC859137FE81915F01B60190E019
:105A800028D121102A9421E0821A910881149104CE
:105A900079F7E1C0843611F0893639F5F80137FE1F
:105AA00007C060817181828193810C5F1F4F08C0A4
:105AB00060817181072E000C880B990B0E5F1F4FC0
:105AC000F32DFF763F2E97FF09C090958095709536
:105AD00061957F4F8F4F9F4FF0683F2E2AE030E057
