:1000000087C00000ACC00000AAC0000023C40000EC
:10001000A6C00000A4C00000A2C00000A0C0000054
:100020009EC000009CC000009AC0000098C0000064
:1000300096C0000094C0000061C3000090C00000A2
:100040008EC000008CC00000C5C1000088C0000048
:1000500086C0000084C0000082C0000080C0000094
:100060007EC000007CC000007AC0000078C00000A4
:1000700076C0000074C0000072C0000070C00000B4
:100080006EC000006CC000006AC00000076342360A
:10009000B79BD8A71A39685618AEBAAB558C1D3C19
:1000A000B7CC5763BD6DEDFD753EF6177231BF00DD
:1000B0000000803F08000000BE922449123EABAA17
:1000C000AA2ABECDCCCC4C3E00000080BEABAAAA72
:1000D000AA3E00000000BF000000803F00000000BA
:1000E00000084178D3BB4387D1133D190E3CC3BDF3
:1000F0004282AD2B3E68EC8276BED98FE1A93E4CA0
:1001000080EFFFBE01C4FF7F3F00000000008504B8
:1001100011241FBECFEFD0E1DEBFCDBF11E0A0E0C4
:10012000B1E0EEEEFFE000E00BBF02C007900D92E1
:10013000A433B107D9F721E0A4E3B1E001C01D92D7
:10014000A237B207E1F710E0C8E8D0E003C021977A
:10015000FE0132D7C738D107D1F7A9D346C750CF50
:1001600093980895939A08951092900083E389B923
:1001700086E08093950088E98AB90895AC0190E003
:10018000FA01E90FF11D2081222329F02CB95D9B92
:10019000FECF9F5FF5CF0895D49A8AE18A95F1F753
:1001A00000C0D39A8AE18A95F1F700C0D4988AE119
:1001B0008A95F1F700C0D3988AE18A95F1F700C0DB
:1001C00010927101CB9905C0809171018F5F80936E
:1001D0007101CC9905C0809171018F5F809371018D
:1001E0008AE18A95F1F700C08AE18A95F1F700C0AB
:1001F0008AE18A95F1F700C08AE18A95F1F700C09B
:100200000895D398D498DB98DC98C6DFC5CFD79AE9
:100210008AE18A95F1F700C0D69A8AE18A95F1F7CA
:1002200000C0D7988AE18A95F1F700C0D6988AE194
:100230008A95F1F700C010927001CE9905C08091A7
:1002400070018F5F80937001CF9905C0809170011C
:100250008F5F809370018AE18A95F1F700C08AE18F
:100260008A95F1F700C08AE18A95F1F700C08AE12A
:100270008A95F1F700C00895D698D798DE98DF9850
:10028000C6DFC5CF87B3876087BB80E58DB908958A
:100290008FB9779BFECF8FB10895CF93DF93C82F8F
:1002A000D62F5EDF8C2F8F718062F2DFC82F8D2FEB
:1002B000EFDF58DF8C2FDF91CF9108954F925F923F
:1002C0006F927F928F929F92AF92BF92CF92DF9266
:1002D000EF92FF920F931F93CF93DF93FC01208146
:1002E000222309F45FC06C015C0100E010E0D0E063
:1002F000C0E0C5018C199D09F501F1905F01FEE296
:10030000FF16D1F020E030E040E251E4B8018D2F3B
:100310009C2F66D42B013C016F2D70E06053710956
:10032000072E000C880B990BCBD3A3019201FAD2B4
:100330008B01D82FC92FDDCF7C012FEFE21AF20AF3
:10034000EC0CFD1CCC24CA94DC2CF70171907F01CD
:10035000772061F1B6010D2C000C880B990BB0D3FE
:100360009B01AC0160E070E080E291E49CD44B0121
:100370005C01672D70E060537109072E000C880B3B
:10038000990B9ED3A50194012BD49B01AC01B8011C
:100390008D2F9C2FC7D28B01D82FC92FF1E0CF1AF8
:1003A000D108D3CF00E010E0D0E0C0E0B8018D2F3D
:1003B0009C2FDF91CF911F910F91FF90EF90DF90D5
:1003C000CF90BF90AF909F908F907F906F905F90F5
:1003D0004F9008951F920F920FB60F9211240BB6F3
:1003E0000F922F933F934F935F936F937F938F93CE
:1003F0009F93AF93BF93CF93DF93EF93FF932CB172
:1004000020933C0180910001909101012C3209F070
:1004100002C120915101309152012F5F3F4F309323
:10042000520120935101892B41F08091000190915C
:100430000101029709F00DC118C081E090E090938E
:100440000101809300016DE371E083E591E0C6D581
:1004500010924E0110924D01EDE3F1E08DE491E038
:1004600011928E179F07E1F7E0CF84E090E0909320
:1004700001018093000180913D01882309F493C01C
:1004800062E071E083E591E0A0D5892B89F5809148
:100490004F01909150018130910561F48DE391E01D
:1004A0000DDF609362017093630180936401909308
:1004B000650179C08530910561F48DE391E0FEDE40
:1004C00060935A0170935B0180935C0190935D018E
:1004D0006AC0079709F067C08DE391E0EFDE609393
:1004E0005E0170935F0180936001909361015BC036
:1004F00068E071E083E591E068D5892B09F053C08D
:1005000080914F01909150018130910561F48DE30C
:1005100091E0D4DE60936C0170936D0180936E0165
:1005200090936F0140C08230910571F46DE371E0EA
:100530008EE091E04AD5892B21F481E080936B0114
:1005400032C010926B012FC08330910561F48DE3AE
:1005500091E0B4DE60936701709368018093690154
:1005600090936A0120C08430910571F46DE371E0CD
:1005700080E191E02AD5892B21F481E08093660106
:1005800012C0109266010FC0069769F46DE371E026
:1005900082E191E01AD5892B21F481E08093590101
:1005A00002C01092590110924E0110924D01EDE3DC
:1005B000F1E0119281E0ED34F807D9F762E071E0E3
:1005C00083E591E002D5C0914F01D0915001892B74
:1005D00081F4C130D10519F485E090E005C025977C
:1005E00009F05FC087E090E09093500180934F0145
:1005F00058C068E071E083E591E0E7D4892B09F009
:1006000050C0C630D10508F04CC02196D09350019F
:10061000C0934F0146C08D7F892B89F480914D0195
:1006200090914E01FC01E35CFE4F20830196FC019A
:10063000E35CFE4F108290934E0180934D01243273
:1006400041F4109201011092000110925201109297
:10065000510180910001909101010197E1F462E064
:1006600071E083E591E0B1D4892B69F481E090E0F9
:100670009093500180934F0184E090E090930101AA
:100680008093000108C068E071E083E591E09DD4AB
:10069000892B61F317C080910001909101010497AB
:1006A00089F4209151013091520180914F01909134
:1006B00050012817390731F482E090E0909301014E
:1006C00080930001FF91EF91DF91CF91BF91AF91A6
:1006D0009F918F917F916F915F914F913F912F915A
:1006E0000F900BBE0F900FBE0F901F90189582E0D9
:1006F0008EBD1FBC87B7846087BF08951F920F927D
:100700000FB60F9211240BB60F92CF92DF92EF9299
:10071000FF922F933F934F935F936F937F938F93AA
:100720009F93AF93BF93EF93FF932FE632E143E89C
:1007300052E46091340170913501809136019091BD
:100740003701F0D06B017C0120E030E04AE754E44F
:1007500043D287FF09C0C0923401D0923501E092A4
:100760003601F092370124C020E030E04AE754E43B
:10077000C701B601D6D060933401709335018093E0
:1007800036019093370120E030E040E85FE360916C
:1007900038017091390180913A0190913B01C2D0AA
:1007A000609338017093390180933A0190933B0133
:1007B000FF91EF91BF91AF919F918F917F916F9139
:1007C0005F914F913F912F91FF90EF90DF90CF90ED
:1007D0000F900BBE0F900FBE0F901F9018958FB902
:1007E000779BFECF08958FEF8FB9779BFECF8FB1A8
:1007F00008951E9808951E9A0895169AFCCFCF93D7
:10080000F8DF85E0ECDFEFDFC82FF5DF8FEC97E056
:100810000197F1F700C000008C2F8170CF910895EF
:10082000EEDF8111FDCFE5DF86E0D9DFE4DF8FEC7D
:1008300097E00197F1F700C000000895F1DFD9DFDC
:1008400080E6CDDFD8DF8FEC97E00197F1F700C0AD
:10085000000008951F920F920FB60F9211240BB64D
:100860000F922F933F934F935F936F937F938F9349
:100870009F93AF93BF93EF93FF936EE287E00DDDFD
:100880008AE18A95F1F700C0FF91EF91BF91AF9196
:100890009F918F917F916F915F914F913F912F9198
:1008A0000F900BBE0F900FBE0F901F9018951FDF7B
:1008B000E9DCA7DCE1DC58DC2FEF30E782E02150F7
:1008C00030408040E1F700C0000097DF82E291E015
:1008D00055DCB4DF9FEF2CE231E381E09150204002
:1008E00030408040D9F700C0000089DF8111FDCF82
:1008F00080E391E043DC9FEF20E732E0915020401D
:100900003040E1F700C00000F3CF10924E0110928A
:100910004D01EDE3F1E0119281E0ED34F807D9F7F4
:1009200008955058BB27AA270ED01CC10DD130F016
:1009300012D120F031F49F3F11F41EF402C10EF4E5
:10094000E095E7FBF8C0E92F1ED180F3BA176207E4
:1009500073078407950718F071F49EF536C10EF4FD
:10096000E0950B2EBA2FA02D0B01B90190010C01BF
:10097000CA01A0011124FF27591B99F0593F50F4D7
:10098000503E68F11A16F040A22F232F342F44272F
:10099000585FF3CF469537952795A795F040539527
:1009A000C9F77EF41F16BA0B620B730B840BBAF0F7
:1009B0009150A1F0FF0FBB1F661F771F881FC2F762
:1009C0000EC0BA0F621F731F841F48F48795779576
:1009D0006795B795F7959E3F08F0B3CF9395880F2D
:1009E00008F09927EE0F9795879508950CD0BAC017
:1009F000B2D040F0A9D030F021F45F3F19F09BC095
:100A00005111E4C09EC0BFD098F39923C9F3552378
:100A1000B1F3951B550BBB27AA27621773078407F1
:100A200038F09F5F5F4F220F331F441FAA1FA9F3A7
:100A300033D00E2E3AF0E0E830D091505040E69599
:100A4000001CCAF729D0FE2F27D0660F771F881FFA
:100A5000BB1F261737074807AB07B0E809F0BB0BE9
:100A6000802DBF01FF2793585F4F2AF09E3F51050D
:100A700068F061C0ABC05F3FECF3983EDCF3869555
:100A800077956795B795F7959F5FC9F7880F911D83
:100A90009695879597F90895E1E0660F771F881F6F
:100AA000BB1F621773078407BA0720F0621B730B22
:100AB000840BBA0BEE1F88F7E0950895E89409C0FF
:100AC00097FB3EF490958095709561957F4F8F4F81
:100AD0009F4F9923A9F0F92F96E9BB279395F69597
:100AE000879577956795B795F111F8CFFAF4BB0F15
:100AF00011F460FF1BC06F5F7F4F8F4F9F4F16C079
:100B0000882311F096E911C0772321F09EE8872F02
:100B1000762F05C0662371F096E8862F70E060E0BE
:100B20002AF09A95660F771F881FDAF7880F969537
:100B3000879597F9089597F99F6780E870E060E0DE
:100B400008959FEF80EC089500240A941616170666
:100B500018060906089500240A94121613061406AE
:100B600005060895092E0394000C11F4882352F011
:100B7000BB0F40F4BF2B11F460FF04C06F5F7F4FC9
:100B80008F4F9F4F089557FD9058440F551F59F0B0
:100B90005F3F71F04795880F97FB991F61F09F3F6A
:100BA00079F087950895121613061406551FF2CF93
:100BB0004695F1DF08C0161617061806991FF1CFE3
:100BC00086957105610508940895E894BB2766270A
:100BD0007727CB0197F90895E3D008F48FEF0895B4
:100BE0000BD0C0CFB1DF28F0B6DF18F0952309F0A5
:100BF000A2CFA7CF1124EACFC6DFA0F3959FD1F3F0
:100C0000950F50E0551F629FF001729FBB27F00DBA
:100C1000B11D639FAA27F00DB11DAA1F649F66270F
:100C2000B00DA11D661F829F2227B00DA11D621F5E
:100C3000739FB00DA11D621F839FA00D611D221F18
:100C4000749F3327A00D611D231F849F600D211DFC
:100C5000822F762F6A2F11249F5750408AF0E1F09F
:100C600088234AF0EE0FFF1FBB1F661F771F881FE8
:100C700091505040A9F79E3F510570F05CCFA6CF30
:100C80005F3FECF3983EDCF3869577956795B795D3
:100C9000F795E7959F5FC1F7FE2B880F911D9695FD
:100CA000879597F90895FA01EE0FFF1F30962105F9
:100CB000310599F16115710561F48038BFE39B0737
:100CC00049F168949038810561F08038BFEF9B0747
:100CD00041F0992342F5FF3FE1053105210511F16E
:100CE000E8940894E795D901AA2329F4AB2FBE2FE5
:100CF000F85FD0F310C0FF5F70F4A695E0F7F73906
:100D000050F019F0FF3A38F49F779F930CD00F9072
:100D100007FC905808953EF014CF60E070E080E842
:100D20009FE308954FE79F775F934F933F932F93F0
:100D3000C2D02F913F914F915F9152DF05C019F4BE
:100D40000EF0F9CE42CFFDCE26DFC8F39638C0F7BD
:100D500007F80F92E8942BE33AEA48EB5FE74EDF9F
:100D60000F920F920F924DB75EB70F92E4D0ECE85E
:100D7000F0E03AD04F915F91EF91FF91E595EE1F32
:100D8000FF1F49F0FE57E0684427EE0F441FFA9515
:100D9000E1F74195550B56D00F9007FE4AC00895D4
:100DA000990F0008550FAA0BE0E8FEEF161617067C
:100DB000E807F907C0F012161306E407F50798F0E4
:100DC000621B730B840B950B39F40A2661F0232BFD
:100DD000242B252B21F408950A2609F4A140A69579
:100DE0008FEF811D811D0895DF93CF931F930F9384
:100DF000FF92EF92DF927B018C01689405C0DA2E9E
:100E0000EF01FADEFE01E894A59125913591459117
:100E10005591AEF3EF0197DDFE019701A801DA9439
:100E200079F7DF90EF90FF900F911F91CF91DF91B5
:100E300008959B01AC0160E070E080E89FE3D6CDAF
:100E40007ACEACC0A8DEE8F39923D9F3940F511DF4
:100E5000BBF39150504094F059F0882332F0660F64
:100E6000771F881F91505040C1F79E3F510544F7AE
:100E7000880F911D9695879597F908955F3FACF07F
:100E8000983E9CF0BB27869577956795B79508F4B3
:100E9000B1609395C1F7BB0F58F711F460FFE8CF2D
:100EA0006F5F7F4F8F4F9F4FE3CF90CE0EF076C096
:100EB00048CE689440CE6FDEC8F39923D1F3C6F3D1
:100EC000DF93CF931F930F93FF92C92FDD278823C2
:100ED0002AF02197660F771F881FDAF720E030E0AD
:100EE00040E85FEB9FE3883920F0803E30F02196A8
:100EF0008F7718DDE4EBF0E003C014DDE1EEF0E005
:100F000073DF8B01BE01EC01FB2E6F5771097595E4
:100F1000771F880B990BD4DD28E132E741E35FE3CB
:100F20006BDEAF2D9801AE01FF900F911F91CF9115
:100F3000DF9109DD17CEFA01DC01AA0FBB1F9B016F
:100F4000AC01BF5728F422273327442750781FC00D
:100F5000B75188F4AB2F0024469537952795011C8F
:100F6000A395D2F3002069F0220F331F441FB395DD
:100F7000DAF30DD0D6CC61307105A0E88A07B94606
:100F800030F49B01AC01662777278827907830964C
:100F900021F0208331834283538308959F3F31F0B2
:100FA000915020F4879577956795B795880F911D97
:100FB0009695879597F90895EE0FFF1F0024001C62
:100FC0000BBE0790F691E02D0994FB01DC018D9199
:100FD000019080190110D9F3990B0895FB01DC01F0
:0E0FE00001900D920020E1F70895F894FFCFE4
:100FEE0005004750565447004750474C4C004E00A2
:100FFE004500410025643B00256C643B0025643BA5
:10100E000A000A73746172742065726173650A0056
:04101E004F6B0A000A
:00000001FF
