S00C00004A756E652E7372656386
S113000087C00000ADC00000ABC00000A9C0000064
S1130010A7C00000A5C00000A3C00000A1C000004C
S11300209FC000009DC000009BC0000099C000005C
S113003097C0000095C0000048C3000091C00000B4
S11300408FC000008DC00000ACC1000089C000005A
S113005087C0000085C0000083C0000081C000008C
S11300607FC000007DC000007BC0000079C000009C
S113007077C0000075C0000073C0000071C00000AC
S11300806FC000006DC000006BC000000763423603
S1130090B79BD8A71A39685618AEBAAB558C1D3C15
S11300A0B7CC5763BD6DEDFD753EF6177231BF00D9
S11300B00000803F08000000BE922449123EABAA13
S11300C0AA2ABECDCCCC4C3E00000080BEABAAAA6E
S11300D0AA3E00000000BF000000803F00000000B6
S11300E000084178D3BB4387D1133D190E3CC3BDEF
S11300F04282AD2B3E68EC8276BED98FE1A93E4C9C
S113010080EFFFBE01C4FF7F3F0000000000DA045F
S113011011241FBECFEFD0E1DEBFCDBF11E0A0E0C0
S1130120B1E0EEE4F6E100E00BBF02C007900D92EF
S1130130A633B107D9F721E0A6E3B1E001C01D92CF
S1130140A437B207E1F710E0C8E8D0E003C0219774
S1130150FE0187D7C738D107D1F716D40C94250BE5
S11301604FCF1092900083E389B986E08093950085
S113017088E98AB90895AC0190E0FA01E90FF11D0C
S11301802081222329F02CB95D9BFECF9F5FF5CF00
S11301900895D49A8AE18A95F1F700C0D39A8AE146
S11301A08A95F1F700C0D4988AE18A95F1F700C0E6
S11301B0D3988AE18A95F1F700C010927301CB9924
S11301C005C0809173018F5F80937301CC9905C042
S11301D0809173018F5F809373018AE18A95F1F7AF
S11301E000C08AE18A95F1F700C08AE18A95F1F7A7
S11301F000C08AE18A95F1F700C00895D398D49895
S1130200DB98DC98C6DFC5CFD79A8AE18A95F1F7E7
S113021000C0D69A8AE18A95F1F700C0D7988AE19E
S11302208A95F1F700C0D6988AE18A95F1F700C063
S113023010927201CE9905C0809172018F5F8093F4
S11302407201CF9905C0809172018F5F8093720112
S11302508AE18A95F1F700C08AE18A95F1F700C036
S11302608AE18A95F1F700C08AE18A95F1F700C026
S11302700895D698D798DE98DF98C6DFC5CF87B3A0
S1130280876087BB80E58DB908954F925F926F9226
S11302907F928F929F92AF92BF92CF92DF92EF9212
S11302A0FF920F931F93CF93DF93FC0120812223AE
S11302B009F45FC06C015C0100E010E0D0E0C0E034
S11302C0C5018C199D09F501F1905F01FEE2FF164D
S11302D0D1F020E030E040E251E4B8018D2F9C2FB2
S11302E0D4D42B013C016F2D70E060537109072EAB
S11302F0000C880B990B39D4A301920168D38B01AC
S1130300D82FC92FDDCF7C012FEFE21AF20AEC0CB3
S1130310FD1CCC24CA94DC2CF70171907F0177205A
S113032061F1B6010D2C000C880B990B1ED49B01B6
S1130330AC0160E070E080E291E40AD54B015C011D
S1130340672D70E060537109072E000C880B990B20
S11303500CD4A501940199D49B01AC01B8018D2F53
S11303609C2F35D38B01D82FC92FF1E0CF1AD10898
S1130370D3CF00E010E0D0E0C0E0B8018D2F9C2F77
S1130380DF91CF911F910F91FF90EF90DF90CF906D
S1130390BF90AF909F908F907F906F905F904F90A1
S11303A008951F920F920FB60F9211240BB60F925D
S11303B02F933F934F935F936F937F938F939F9369
S11303C0AF93BF93CF93DF93EF93FF932CB120931D
S11303D03E0180910001909101012C3209F002C18B
S11303E020915301309154012F5F3F4F30935401BA
S11303F020935301892B41F08091000190910101D8
S1130400029709F00DC118C081E090E090930101BA
S1130410809300016FE371E085E591E034D610929A
S1130420500110924F01EFE3F1E08FE491E011925B
S11304308E179F07E1F7E0CF84E090E090930101ED
S11304408093000180913F01882309F493C062E006
S113045071E085E591E00ED6892B89F580915101F3
S1130460909152018130910561F48FE391E00DDFA9
S113047060936401709365018093660190936701B2
S113048079C08530910561F48FE391E0FEDE6093DD
S11304905C0170935D0180935E0190935F016AC07B
S11304A0079709F067C08FE391E0EFDE6093600186
S11304B07093610180936201909363015BC068E073
S11304C071E085E591E0D6D5892B09F053C0809180
S11304D05101909152018130910561F48FE391E0D3
S11304E0D4DE60936E0170936F01809370019093DA
S11304F0710140C08230910571F46FE371E08EE0C8
S113050091E0B8D5892B21F481E080936D0132C04C
S113051010926D012FC08330910561F48FE391E057
S1130520B4DE6093690170936A0180936B019093C8
S11305306C0120C08430910571F46FE371E080E1B7
S113054091E098D5892B21F481E08093680112C051
S1130550109268010FC0069769F46FE371E082E1BD
S113056091E088D5892B21F481E080935B0102C05E
S113057010925B011092500110924F01EFE3F1E0F1
S1130580119281E0EF34F807D9F762E071E085E574
S113059091E070D5C0915101D0915201892B81F421
S11305A0C130D10519F485E090E005C0259709F024
S11305B05FC087E090E0909352018093510158C04E
S11305C068E071E085E591E055D5892B09F050C0CC
S11305D0C630D10508F04CC02196D0935201C09387
S11305E0510146C08D7F892B89F480914F019091F0
S11305F05001FC01E15CFE4F20830196FC01E15CAB
S1130600FE4F10829093500180934F01243241F4A5
S113061010920101109200011092540110925301A2
S113062080910001909101010197E1F462E071E091
S113063085E591E01FD5892B69F481E090E09093E2
S113064052018093510184E090E0909301018093E2
S1130650000108C068E071E085E591E00BD5892BC5
S113066061F317C08091000190910101049789F40E
S11306702091530130915401809151019091520184
S11306802817390731F482E090E0909301018093B8
S11306900001FF91EF91DF91CF91BF91AF919F91B5
S11306A08F917F916F915F914F913F912F910F9017
S11306B00BBE0F900FBE0F901F90189582E08EBD59
S11306C01FBC87B7846087BF08951F920F920FB62F
S11306D00F9211240BB60F92CF92DF92EF92FF92FA
S11306E02F933F934F935F936F937F938F939F9336
S11306F0AF93BF93EF93FF932FE632E143E852E4C5
S113070060913601709137018091380190913901DF
S11307105ED16B017C0120E030E04AE754E4B1D2C1
S113072087FF09C0C0923601D0923701E0923801A8
S1130730F092390124C020E030E04AE754E4C701D4
S1130740B60144D160933601709337018093380128
S11307509093390120E030E040E85FE360913A0192
S113076070913B0180913C0190913D0130D16093A7
S11307703A0170933B0180933C0190933D01FF91BA
S1130780EF91BF91AF919F918F917F916F915F9105
S11307904F913F912F91FF90EF90DF90CF900F906A
S11307A00BBE0F900FBE0F901F9018955D9BFECF50
S11307B08CB90895CF93DF93EC018991882311F0CC
S11307C0F5DFFBCFDF91CF910895E199FECF9FBB79
S11307D08EBBE09A8DB308950F931F93CF93DF934D
S11307E08C010196F2DFC82FD0E0DC2FCC2700006B
S11307F0C801EBDF9E01280F311DC901DF91CF91A4
S11308001F910F910895CF92DF92EF92FF921F9361
S1130810CF93DF93EC01D9DF182FCE010196D5DFFA
S1130820C82ED12CE12CF12C7601DD24CC24F12A24
S1130830CE010296CADF182FCE010396C6DFA701A8
S11308409601282BDA01C901BC01CD01712BDF917E
S1130850CF911F91FF90EF90DF90CF9008958F92EA
S11308609F92AF92BF92CF92DF92EF92FF920F933B
S11308701F93CF93DF93CDB7DEB72F970FB6F894BE
S1130880DEBF0FBECDBFE12CF12C84E1C82E81E088
S1130890D82E8E010F5F1F4F98E1892E91E0992E7B
S11308A022E2A22E21E0B22EC70196DF9F938F93FE
S11308B0DF92CF921F930F93EDD3C8017BDFC70163
S11308C002968ADF9F938F93DF92CF921F930F93A9
S11308D0E1D3C8016FDFC70104967EDF9F938F9336
S11308E0DF92CF921F930F93D5D3C80163DFC70163
S11308F0069672DF9F938F93DF92CF921F930F938D
S1130900C9D3C80157DFC70108967DDF9F938F9332
S11309107F936F939F928F921F930F93BBD30FB6C6
S1130920F894DEBF0FBECDBFC80144DFC7010C96EB
S11309306ADF9F938F937F936F93BF92AF921F93BE
S11309400F93A8D3C80136DF90E1E90EF11C0FB66E
S1130950F894DEBF0FBECDBFE11490E1F90609F0B3
S1130960A3CF2F960FB6F894DEBF0FBECDBFDF9195
S1130970CF911F910F91FF90EF90DF90CF90BF9098
S1130980AF909F908F90089599DE79DC37DC71DC0D
S1130990E8DB88E291E0EFDB62DF8BE291E0EBDB06
S11309A02FEF81EE94E0215080409040E1F700C0A9
S11309B00000F3CF1092500110924F01EFE3F1E0E9
S11309C0119281E0EF34F807D9F708955058BB2706
S11309D0AA270ED01CC10DD130F012D120F031F471
S11309E09F3F11F41EF402C10EF4E095E7FBF8C03A
S11309F0E92F1ED180F3BA1762077307840795079E
S1130A0018F071F49EF536C10EF4E0950B2EBA2F52
S1130A10A02D0B01B90190010C01CA01A001112400
S1130A20FF27591B99F0593F50F4503E68F11A16AC
S1130A30F040A22F232F342F4427585FF3CF46953D
S1130A4037952795A795F0405395C9F77EF41F165F
S1130A50BA0B620B730B840BBAF09150A1F0FF0F29
S1130A60BB1F661F771F881FC2F70EC0BA0F621F15
S1130A70731F841F48F4879577956795B795F79505
S1130A809E3F08F0B3CF9395880F08F09927EE0F97
S1130A909795879508950CD0BAC0B2D040F0A9D0EC
S1130AA030F021F45F3F19F09BC05111E4C09EC0A7
S1130AB0BFD098F39923C9F35523B1F3951B550B74
S1130AC0BB27AA2762177307840738F09F5F5F4F1D
S1130AD0220F331F441FAA1FA9F333D00E2E3AF05E
S1130AE0E0E830D091505040E695001CCAF729D078
S1130AF0FE2F27D0660F771F881FBB1F26173707C7
S1130B004807AB07B0E809F0BB0B802DBF01FF27F6
S1130B1093585F4F2AF09E3F510568F061C0ABC007
S1130B205F3FECF3983EDCF3869577956795B79530
S1130B30F7959F5FC9F7880F911D9695879597F94B
S1130B400895E1E0660F771F881FBB1F62177307C4
S1130B508407BA0720F0621B730B840BBA0BEE1FD9
S1130B6088F7E0950895E89409C097FB3EF49095C2
S1130B708095709561957F4F8F4F9F4F9923A9F072
S1130B80F92F96E9BB279395F69587957795679501
S1130B90B795F111F8CFFAF4BB0F11F460FF1BC045
S1130BA06F5F7F4F8F4F9F4F16C0882311F096E9D8
S1130BB011C0772321F09EE8872F762F05C0662386
S1130BC071F096E8862F70E060E02AF09A95660F3F
S1130BD0771F881FDAF7880F9695879597F90895F8
S1130BE097F99F6780E870E060E008959FEF80ECDC
S1130BF0089500240A94161617061806090608957F
S1130C0000240A9412161306140605060895092EE4
S1130C100394000C11F4882352F0BB0F40F4BF2B53
S1130C2011F460FF04C06F5F7F4F8F4F9F4F089593
S1130C3057FD9058440F551F59F05F3F71F0479589
S1130C40880F97FB991F61F09F3F79F0879508956E
S1130C50121613061406551FF2CF4695F1DF08C08D
S1130C60161617061806991FF1CF869571056105AA
S1130C7008940895E894BB2766277727CB0197F952
S1130C800895E3D008F48FEF08950BD0C0CFB1DFFF
S1130C9028F0B6DF18F0952309F0A2CFA7CF1124CE
S1130CA0EACFC6DFA0F3959FD1F3950F50E0551F0F
S1130CB0629FF001729FBB27F00DB11D639FAA27AD
S1130CC0F00DB11DAA1F649F6627B00DA11D661FFC
S1130CD0829F2227B00DA11D621F739FB00DA11D1D
S1130CE0621F839FA00D611D221F749F3327A00DD7
S1130CF0611D231F849F600D211D822F762F6A2F73
S1130D0011249F5750408AF0E1F088234AF0EE0FF7
S1130D10FF1FBB1F661F771F881F91505040A9F704
S1130D209E3F510570F05CCFA6CF5F3FECF3983E39
S1130D30DCF3869577956795B795F795E7959F5F6B
S1130D40C1F7FE2B880F911D9695879597F9089505
S1130D50FA01EE0FFF1F30962105310599F1611557
S1130D60710561F48038BFE39B0749F168949038BA
S1130D70810561F08038BFEF9B0741F0992342F56C
S1130D80FF3FE1053105210511F1E8940894E79549
S1130D90D901AA2329F4AB2FBE2FF85FD0F310C0DA
S1130DA0FF5F70F4A695E0F7F73950F019F0FF3AB9
S1130DB038F49F779F930CD00F9007FC90580895B8
S1130DC03EF014CF60E070E080E89FE308954FE7C1
S1130DD09F775F934F933F932F93C2D02F913F916F
S1130DE04F915F9152DF05C019F40EF0F9CE42CF56
S1130DF0FDCE26DFC8F39638C0F707F80F92E894C3
S1130E002BE33AEA48EB5FE74EDF0F920F920F9223
S1130E104DB75EB70F92E4D0ECE8F0E03AD04F91D2
S1130E205F91EF91FF91E595EE1FFF1F49F0FE578B
S1130E30E0684427EE0F441FFA95E1F74195550BFE
S1130E4056D00F9007FE4AC00895990F0008550F19
S1130E50AA0BE0E8FEEF16161706E807F907C0F03C
S1130E6012161306E407F50798F0621B730B840B44
S1130E70950B39F40A2661F0232B242B252B21F41E
S1130E8008950A2609F4A140A6958FEF811D811DBE
S1130E900895DF93CF931F930F93FF92EF92DF9206
S1130EA07B018C01689405C0DA2EEF01FADEFE01A5
S1130EB0E894A5912591359145915591AEF3EF01B3
S1130EC097DDFE019701A801DA9479F7DF90EF909E
S1130ED0FF900F911F91CF91DF9108959B01AC0179
S1130EE060E070E080E89FE3D6CD7ACEACC0A8DEA7
S1130EF0E8F39923D9F3940F511DBBF3915050405B
S1130F0094F059F0882332F0660F771F881F9150B0
S1130F105040C1F79E3F510544F7880F911D9695A7
S1130F20879597F908955F3FACF0983E9CF0BB27F6
S1130F30869577956795B79508F4B1609395C1F751
S1130F40BB0F58F711F460FFE8CF6F5F7F4F8F4FEF
S1130F509F4FE3CF90CE0EF076C048CE689440CE3B
S1130F606FDEC8F39923D1F3C6F3DF93CF931F93B6
S1130F700F93FF92C92FDD2788232AF02197660F4C
S1130F80771F881FDAF720E030E040E85FEB9FE34B
S1130F90883920F0803E30F021968F7718DDE4EB1D
S1130FA0F0E003C014DDE1EEF0E073DF8B01BE017D
S1130FB0EC01FB2E6F5771097595771F880B990B00
S1130FC0D4DD28E132E741E35FE36BDEAF2D980126
S1130FD0AE01FF900F911F91CF91DF9109DD17CEE4
S1130FE0FA01DC01AA0FBB1F9B01AC01BF5728F417
S1130FF022273327442750781FC0B75188F4AB2FDA
S11310000024469537952795011CA395D2F300201B
S113101069F0220F331F441FB395DAF30DD0D6CCF9
S113102061307105A0E88A07B94630F49B01AC0130
S11310306627772788279078309621F0208331839C
S11310404283538308959F3F31F0915020F4879554
S113105077956795B795880F911D9695879597F91C
S11310600895EE0FFF1F0024001C0BBE0790F6919D
S1131070E02D0994FB01DC018D9101908019011090
S1131080D9F3990B0895FB01DC0101900D92002026
S1131090E1F708950F931F93CF93DF93CDB7DEB796
S11310A02E970FB6F894DEBF0FBECDBF0D891E89F3
S11310B086E08C831A8309838FEF9FE79E838D8359
S11310C0AE01475E5F4F6F89788DCE01019610D0D7
S11310D0EF81F885E00FF11F10822E960FB6F89479
S11310E0DEBF0FBECDBFDF91CF911F910F91089549
S11310F02F923F924F925F926F927F928F929F9224
S1131100AF92BF92CF92DF92EF92FF920F931F9311
S1131110CF93DF93CDB7DEB72B970FB6F894DEBF2E
S11311200FBECDBF6C017B018A01FC0117821682C0
S1131130838181FFBFC1CE0101963C01F6019381F9
S1131140F70193FD859193FF81917F01882309F431
S1131150ADC1853239F493FD859193FF81917F016F
S1131160853221F4B60190E0D6D1E8CF912C212C20
S1131170312CFFE1F315D8F08B3279F038F480325A
S113118079F08332A1F4232D20611DC08D3261F0EA
S1131190803369F4232D216016C0832D8260382E9C
S11311A0E32DE4603E2E2AC0F32DF8601DC037FC09
S11311B02DC020ED280F2A3040F08E32B9F436FCD1
S11311C075C1232D2064322E19C036FE06C08AE074
S11311D0989E200D1124922E11C0EAE02E9E200D1F
S11311E01124222EF32DF0623F2E08C08C3621F4F8
S11311F0832D8068382E02C0883641F4F70193FDB0
S1131200859193FF81917F018111B3CF982F9F7DA9
S11312109554933028F40C5F1F4F9FE399830DC0BE
S1131220833631F0833771F0833509F055C020C01F
S1131230F801808189830E5F1F4F88248394912C49
S1131240530112C02801F2E04F0E511CF801A08096
S1131250B18036FE03C0692D70E002C06FEF7FEFEE
S1131260C5014ED14C018201F32DFF773F2E15C0ED
S1131270280122E0420E511CF801A080B18036FE04
S113128003C0692D70E002C06FEF7FEFC5012DD15F
S11312904C01F32DF0683F2E820133FC19C0822DDE
S11312A090E088169906A0F4B60180E290E033D16C
S11312B02A94F5CFF50137FC859137FE81915F01C2
S11312C0B60190E028D121102A9421E0821A9108D5
S11312D08114910479F7E1C0843611F0893639F527
S11312E0F80137FE07C060817181828193810C5FB0
S11312F01F4F08C060817181072E000C880B990B69
S11313000E5F1F4FF32DFF763F2E97FF09C0909578
S11313108095709561957F4F8F4F9F4FF0683F2E5A
S11313202AE030E0A30133D1882E861844C08537E3
S113133031F4232D2F7EB22E2AE030E025C0932DE8
S1131340997FB92E8F36C1F018F4883579F0AEC084
S1131350803719F0883721F0A9C0E92FE061BE2E4B
S1131360B4FE0DC0FB2DF460BF2E09C034FE0AC0CC
S1131370292F2660B22E06C028E030E005C020E107
S113138030E002C020E132E0F801B7FE07C060811E
S11313907181828193810C5F1F4F06C060817181CE
S11313A080E090E00E5F1F4FA301F1D0882E8618D5
S11313B0FB2DFF773F2E36FE0DC0232D2E7FA22E50
S11313C0891458F434FE0BC032FC09C0832D8E7E80
S11313D0A82E05C0B82CA32C03C0B82C01C0B92C6E
S11313E0A4FE0FC0FE01E80DF11D8081803321F4BD
S11313F09A2D997EA92E09C0A2FE06C0B394B39477
S113140004C08A2D867809F0B394A3FC10C0A0FE12
S113141006C0B21480F4280C922C9B180DC0B21490
S113142058F4B60180E290E076D0B394F8CFB214C9
S113143018F42B1802C0982C212CA4FE0FC0B6015E
S113144080E390E068D0A2FE16C0A1FC03C088E748
S113145090E002C088E590E0B6010CC08A2D867841
S113146051F0A1FE02C08BE201C080E2A7FC8DE234
S1131470B60190E050D0891430F4B60180E390E0D6
S11314804AD09A94F8CF8A94F301E80DF11D808133
S1131490B60190E040D08110F6CF222009F44ECE60
S11314A0B60180E290E037D02A94F7CFF601868126
S11314B0978102C08FEF9FEF2B960FB6F894DEBF93
S11314C00FBECDBFDF91CF911F910F91FF90EF9091
S11314D0DF90CF90BF90AF909F908F907F906F9050
S11314E05F904F903F902F900895FC0105906150BC
S11314F070400110D8F7809590958E0F9F1F089526
S1131500FC016150704001900110D8F780959095CE
S11315108E0F9F1F08950F931F93CF93DF93FB01AB
S1131520238121FD03C08FEF9FEF2CC022FF16C043
S113153046815781248135814217530744F4A081A1
S1131540B1819D012F5F3F4F318320838C9326818E
S113155037812F5F3F4F3783268314C08B01EC0103
S1131560FB010084F185E02D0995892BE1F6D80172
S113157016968D919C911797019617969C938E932E
S11315801697CE01DF91CF911F910F910895FA0123
S1131590AA27283051F1203181F1E8946F936E7FAE
S11315A06E5F7F4F8F4F9F4FAF4FB1E03ED0B4E09F
S11315B03CD0670F781F891F9A1FA11D680F791FE0
S11315C08A1F911DA11D6A0F711D811D911DA11DF1
S11315D020D009F468943F912AE0269F1124301901
S11315E0305D3193DEF6CF010895462F4770405D9C
S11315F04193B3E00FD0C9F7F6CF462F4F70405D4B
S11316004A3318F0495D31FD4052419302D0A9F7A5
S1131610EACFB4E0A6959795879577956795BA959F
S1131620C9F700976105710508959B01AC010A2E65
S113163006945795479537952795BA95C9F7620F3C
S1111640731F841F951FA01D0895F894FFCFFB
S113164E05004750565447004750474C4C004E0037
S113165E4500410025643B00256C643B0025643B3A
S113166E0A00256C643B0A000A0A00726561642054
S109167E656E640A000021
S9030000FC
